:020000040800F2
:10000000784000207D6E0008FD6700080768000842
:10001000116800081B68000825680008B648FDAF95
:10002000000000000000000000000000A5650008BE
:100030002F680008000000003D660008E14F00083E
:10004000396800084B6800085D6800086F680008A0
:100050008168000893680008A5680008B768000870
:10006000C9680008DB680008ED680008FF68000840
:10007000116900082369000835690008476900080C
:10008000596900086B6900087D6900088F690008DC
:10009000A1690008B3690008C5690008D7690008AC
:1000A000E9690008FB6900080D6A00081F6A00087A
:1000B000316A0008436A0008556A0008676A000848
:1000C000796A00088B6A00089D6A0008AF6A000818
:1000D000C16A0008D36A0008E56A0008F76A0008E8
:1000E000096B00081B6B00082D6B00083F6B0008B4
:1000F000516B0008636B0008756B0008876B000884
:10010000996B0008AB6B0008BD6B0008CF6B000853
:10011000E16B0008F36B0008056C0008176C000821
:10012000296C00083B6C00084D6C00085F6C0008EF
:10013000716C0008836C0008956C0008A76C0008BF
:10014000B96C0008CB6C0008DD6C0008EF6C00088F
:10015000016D0008136D0008256D0008376D00085B
:10016000496D00085B6D00086D6D00087F6D00082B
:10017000916D0008A36D0008B56D0008C76D0008FB
:10018000D96D0008EB6D0008FD6D00080F6E0008CA
:10019000216E0008336E0008456E0008576E000897
:1001A000894D0008696E0008F14D000870B51E46C3
:1001B00003680446BDF910505B6B984723682046DE
:1001C00031469A6B9047236820462946DB6BBDE891
:1001D0007040184781807047C180704770B50368D0
:1001E00004461546DB6A98472368204629461B6B60
:1001F000BDE87040184701817047418170477047E2
:1002000070477047704770478388C91AC38830B5F4
:10021000D21A056809B26B6D12B2BDE830401847BA
:100220004FF6FF738381038443841368C3611060B6
:1002300070477047704770477047704790F82520A7
:100240001AB190F8242002B11860704770477047C7
:10025000704710B5C268836812F0010F40684FEA1A
:10026000620218BF8458104418BFE358BDE810401C
:10027000184743682BB183682BB9C06800F00100B0
:100280007047184670470120704710B5044610F0BB
:10029000E5FF204610BD704710B5044610F0DEFFA4
:1002A000204610BD704710B5044610F0D7FF204619
:1002B00010BD000010B5044600F0C2FC014B204602
:1002C000236010BD281701087047A0F10400FFF754
:1002D000FBBF7047704710B5044610F0BFFF2046C3
:1002E00010BDA0F10400F6E70022C1608260044A5C
:1002F00010B502F1080420320460426010BD00BF56
:10030000581701087047A0F10400FFF7FBBF7047C2
:10031000704710B5044610F0A1FF204610BDA0F1B3
:100320000400F6E70022C1608260044A10B502F1C1
:10033000080420320460426010BD00BF801701082D
:1003400070477047704710B5C268836812F0010F9C
:1003500040684FEA620218BF8458104418BFE3583F
:10036000BDE81040184743682BB183682BB9C068BB
:1003700000F001007047184670470120704710B523
:10038000044610F06BFF204610BD000010B5044677
:1003900000F048FE014B2046236010BDB017010855
:1003A0007047704710B5044610F058FF204610BD46
:1003B000704710B5044610F051FF204610BD10B52F
:1003C000044610F04BFF204610BD70477047704741
:1003D00010B5C268836812F0010F40684FEA6202EC
:1003E00018BF8458104418BFE358BDE810401847A0
:1003F00043682BB183682BB9C06800F001007047D7
:10040000184670470120704710B5044610F026FFCB
:10041000204610BD10B5044601F06EF9014B204690
:10042000236010BDE8170108704710B5044610F0AE
:1004300015FF204610BD704710B5044610F00EFFA2
:10044000204610BD7047A0F10400FFF7FBBF7047C6
:10045000704710B5044610F001FF204610BDA0F112
:100460000400F6E70022C1608260044A10B502F180
:10047000080420320460426010BD00BF1818010853
:1004800070477047704770477047038A8B4286BF3A
:1004900000EB810040680020704710B50346018AD8
:1004A000002290B2884208D253F8044F104601321D
:1004B00094F83740002CF4D001E04FF0FF3010BD2D
:1004C00010B5036804461B699847011E06DB2368C4
:1004D000204689B2DB68BDE810401847002010BDF7
:1004E000002210B5048A93B29C4206D900EB830324
:1004F00001325B6883F83810F4E710BD038A1BB142
:10050000436893F8380070471846704710B5C268C2
:10051000836812F0010F40684FEA620218BF8458E6
:10052000104418BFE358BDE81040184743682BB18A
:1005300083682BB9C06800F0010070471846704707
:100540000120704710B5C268836812F0010F40683F
:100550004FEA620218BF8458104418BFE358BDE840
:100560001040184743682BB183682BB9C06800F06E
:1005700001007047184670470120704710B50446C7
:1005800010F06CFE204610BD10B5044610F066FE5B
:10059000204610BD10B5044610F060FE204610BD88
:1005A00070B505460C46084601210CF00DF92B6884
:1005B000284621465B6ABDE87040184770B504467E
:1005C000806B0D4650B10368DB68984730B1A06B73
:1005D00029460368BDE870409B68184770BD00005D
:1005E00008B5038A022B05D909486B21094A0A4B31
:1005F00003F09AFF00F114038B6200F12403CB6334
:10060000038A5A1C028200EB8300416008BD00BFD0
:10061000E3180108741801083319010870B504467D
:100620000E460025228AABB29A420CD904EB830312
:100630005868B04205D090F8373013B100210CF063
:10064000C3F80135EEE7606B50B10368DB6898478B
:1006500030B1606B31460368BDE870409B68184755
:1006600070BD704710B5044610F0F8FD204610BD6F
:10067000704710B5044610F0F1FD204610BD000093
:1006800010B5044601F088FB014B2046236010BDE5
:10069000481801087047A0F10400FFF7FBBF70473E
:1006A000704710B5044610F0D9FD204610BDA0F1EA
:1006B0000400F6E70022C1608260044A10B502F12E
:1006C000080420320460426010BD00BF70190108A8
:1006D0007047A0F10400FFF7FBBF7047704710B5EB
:1006E000044610F0BBFD204610BDA0F10400F6E763
:1006F0000022C1608260044A10B502F10804203271
:100700000460426010BD00BF98190108704770472F
:10071000704710B5C268836812F0010F40684FEA55
:10072000620218BF8458104418BFE358BDE8104057
:10073000184743682BB183682BB9C06800F00100EB
:100740007047184670470120704710B5044610F0F6
:1007500085FD204610BD000010B5044601F0F2FDF5
:10076000014B2046236010BDC8190108704770472F
:1007700010B5044610F072FD204610BD704710B54C
:10078000044610F06BFD204610BD10B5044610F075
:1007900065FD204610BD002202607047704770471B
:1007A000A0F10400FFF7FBBF7047704710B5044687
:1007B00010F054FD204610BDA0F10400F6E7000043
:1007C0000022C1608260044A10B502F108042032A0
:1007D0000460426010BD00BFF819010800220280C9
:1007E00042808280C280704770B503680446154617
:1007F000DB6A98472368204629465B6EBDE8704057
:1008000018470D2070470E2070477047704770479B
:10081000704710B5C268836812F0010F40684FEA54
:10082000620218BF8458104418BFE358BDE8104056
:10083000184743682BB183682BB9C06800F00100EA
:100840007047184670470120704710B5044610F0F5
:1008500005FD204610BD10B5044610F0FFFC2046F3
:1008600010BD000008B50A4B1B6823B90948E621F2
:10087000094A0A4B08E00A4B02881B889A4205D3B2
:100880000448E721044A074B03F04EFE08BD00BFB1
:10089000E8380020BC1A0108541A0108FD1A0108A2
:1008A000F03800203F1B010810B50446FFF7DAFFBF
:1008B000044B22881B6813F81220034B1B6853F863
:1008C000220010BDE8380020F438002073B503681A
:1008D00005460C461E6BC38C02A820F8043DFFF7AA
:1008E000E3FF0368DB6A9847211A284609B2B0473C
:1008F00002B070BD10B50446FFF7B4FF024B22886A
:100900001B6853F8220010BD640900202DE9F04156
:100910004FF6FF73C78C04469F421BD000F126059B
:100920002846FFF7C1FF06462846FFF79BFF2846EB
:10093000FFF7E0FF094B024630681B68C569304687
:1009400003EB4703AC465978636BC1F38101BDE803
:10095000F04160470020BDE8F08100BFE83800208A
:1009600010B54FF6FF73C28C04469A4209D0263068
:10097000FFF7C0FF626B01462046BDE810400BF058
:10098000C3BB002010BD00002DE9F04F4FF6FF73F0
:10099000C68C8FB004469E420F464BD000F1260510
:1009A0002846FFF781FF8046002843D0284694F868
:1009B0002E90FFF757FF214B2846B4F82CA01B6858
:1009C00094F830B003EB46035E78C6F30101C6F33A
:1009D00081060591FFF746FF94F8313094F82F0017
:1009E0008DF83430164B05998DF8296007AEA26A50
:1009F0001B688DF8330030468DF8281021460B9285
:100A0000CDF824808DF83290ADF830A08DF82AB062
:100A1000D3F808800DF084FD2846FFF76BFF09AB83
:100A2000019040460093636B02933B4696E80600B4
:100A30000BF0C0FF0FB0BDE8F08F00BFE83800201A
:100A40006438002010B5044601F05AFF014B2046DF
:100A5000236010BD901A01080A4B10B504460360CC
:100A600000F20C400AF0E0F804F544700AF0DCF8FB
:100A700004F505700AF0D8F804F58C700AF0D4F883
:100A8000204610BD281A010810B50446FFF7E4FF00
:100A9000204610F0E3FB204610BD0000034B10B5CC
:100AA00004460360FFF7D8FF204610BD901A0108E6
:100AB00010B50446FFF7F2FF204610F0CFFB2046AA
:100AC00010BD7047704770477047C268836812F066
:100AD000010F40684FEA620218BF8158104418BFE6
:100AE000CB58184743682BB183682BB9C06800F016
:100AF00001007047184670470120704710B5044642
:100B000010F0ACFB204610BD10B5044610F0A6FB5B
:100B1000204610BD10B5044610F0A0FB204610BDC5
:100B200010B50446D0F82401FFF738FE2046BDE892
:100B300010400CF05DBC10B50446D0F80C0158B163
:100B40000368DB68984738B1D4F80C0103689B68E8
:100B500098470023C4F80C3110BD000010B50446BE
:100B600002F02CFD014B2046236010BDA01B0108A4
:100B700008B500F16C03994205D10CF06DFDBDE89C
:100B8000084002F04FBD00F1DC03994205D10CF0A2
:100B900063FDBDE8084002F075BD00F59073994211
:100BA00005D10CF059FDBDE8084002F09BBD00F5F1
:100BB000B273994205D10CF04FFDBDE8084002F038
:100BC00071BD00F5D470814205D10CF045FDBDE842
:100BD000084002F077BD08BDF8B500F134070646BD
:100BE0003846FFF73FFE134BB48E38461B6813F8A8
:100BF0001420114B1B6853F82250FFF733FE0F4BA4
:100C000028461B6853F824702B6839469B6A98471E
:100C10002B6804463946DB6B2846984710FB04F0E6
:100C20002B683946C4B228465B6A9847204486F848
:100C30004100F8BDE8380020F438002064090020A5
:100C40002DE9F04F04468DB04FF0000A0DF066FE1E
:100C5000A446D24B0CAE4FF6FF77C4F83CA04FF041
:100C6000010B4CF8403B6046CD4B04F1DC0926F803
:100C7000047D3146A4F844A004F59078A4F846A079
:100C8000FF25A4F848A0A4F84AA0A4F84CA0A4F812
:100C90004EA0A4F850A0A4F852A0C4F854A0C4F8E0
:100CA00058A0C4F85CA084F864A084F865B02364FC
:100CB000A4F8667084F86870CDF810C00BF037FBAC
:100CC00004F16C03184605930BF00AFB04F1A8032A
:100CD000A4F8ACA048460693B24BA4F8AEA0C4F862
:100CE000A830A4F8B0A0A4F8B2A0A4F8B4A0A4F8C6
:100CF000B6A0A4F8B8A0A4F8BAA0C4F8BCA0C4F8E0
:100D0000C0A0C4F8C4A084F8CCA084F8CDB0A4F8E6
:100D1000CE70C4F8D0A0A4F8D4A084F8D6703C2734
:100D200084F8D7A084F8D8A084F8D9A00BF044FCAC
:100D300040460BF041FC04F5B273184602930BF0E9
:100D40003BFC04F5D473184603930BF035FC964B2B
:100D5000DDF810C05246C4F8EC315146934B604662
:100D6000C4F8F8A1C4F8F431C4F8F041FFF736FA3A
:100D7000DDF810C0162331466046CDF81CC0ADF832
:100D80002C300BF0D4FA05983B4600974FF4D27103
:100D90006A22FFF70BFA0623059808A9ADF8283058
:100DA00009AAADF82C300AAB0096ADF820A0ADF83A
:100DB00024B00BF0EFF94FF00E034FF01A0B06982A
:100DC0005246A4F8A4304FF00F03CDF800B040F223
:100DD0001311A4F8A63004F5F6730493C4F8943004
:100DE000C823FFF7E3F92A46294628460EF01EF8E5
:100DF000A4F8D4A0C4F8D0004FF0080106984FF032
:100E0000030A0BF035F8352348465A4684F8D630A5
:100E10004FF0020B4FF4B47300972221FFF7C6F98D
:100E20000AA932464846ADF828B0ADF82CA00BF020
:100E3000A5F809234846A4F81031FFF7CDFE29464E
:100E40002A4628460DF0F2FF2946C4F814012A4626
:100E500028460DF0EBFF049BC4F818012221C4F8CA
:100E6000043140464FF4B47300975622FFF79EF9C1
:100E70000AA932464046ADF828B0ADF82CA00BF0D8
:100E80007DF84FF00E034046A4F85431FFF7A4FE5E
:100E900029462A4628460DF0C9FF2946C4F85801BC
:100EA0002A4628460DF0C2FF049BC4F85C012221AB
:100EB000C4F84831CE2202984FF4B4730097FFF77C
:100EC00075F90AA932460298ADF828B0ADF82CA001
:100ED0000BF054F84FF00F030298A4F89831FFF785
:100EE0007BFE29462A4628460DF0A0FF2946C4F875
:100EF0009C012A4628460DF099FF049BC4F8A001E6
:100F00002221C4F88C31922203984FF4B4730097D5
:100F1000FFF74CF90AA932460398ADF828B0ADF8AE
:100F20002CA00BF02BF810230398A4F8DC31FFF76A
:100F300053FE29462A4628460DF078FF2A46C4F873
:100F4000E00129462846251D0DF070FF049BDDF8C1
:100F50001CC0C4F8D0316146C4F8E401284609F049
:100F60001BFD2846059909F017FD2846069909F04A
:100F700013FD2846494609F00FFD2846414609F071
:100F80000BFD2846029909F007FD2846039909F050
:100F900003FD20460DB0BDE8F08F00BFF81B01082F
:100FA00070400108403E0108E01B0108710B000879
:100FB00008B500F1A003994205D10CF04DFBBDE846
:100FC000084002F04FBBDC30814205D10CF044FBFD
:100FD000BDE8084002F026BB08BD00000121002248
:100FE00080F825100E49828001604FF6FF71C280A3
:100FF000028142818281C281028242824261826197
:10100000C26180F82420C1848262828580F82E101B
:1010100080F82F2080F8302080F83120704700BF02
:10102000403E01082DE9F04F04469DB000250DF02B
:1010300075FC2246D84B0DF170084FF0010AE563AC
:10104000FF2742F8403B4FF6FF7303923C26D34AFA
:101050004FF00E0928F8043D4146226404F5936BD5
:10106000A4F84450A4F84650A4F84850A4F84A50B4
:10107000A4F84C50A4F84E50A4F85050A4F8525084
:101080006565A565E56584F86450A4F8663084F864
:101090006830039884F865A00BF049F904F16C03FB
:1010A00018460493FFF79AFF04F1A003184605932E
:1010B0000BF016F904F1DC03184606930BF010F957
:1010C00004F58C7318460793FFF788FF04F5A673A1
:1010D00018460893FFF782FF04F5C073184609937A
:1010E0000BF0FEF804F5DE7318460A930BF0F8F8DF
:1010F00004F5FC7318460B930BF0F2F804F50D732E
:1011000018460C930BF0ECF804F51C7318460D937D
:10111000FFF764FF04F5297318460E93FFF75EFF8F
:1011200004F5367318460F93FFF758FF04F5437321
:1011300018461093FFF752FF04F5507318461193A9
:101140000BF0CEF804F55F73184612930BF0C8F855
:1011500004F56E73184613930BF0C2F804F57D7313
:10116000184614930BF0BCF804F5866318461593E3
:10117000FFF734FF04F2644318461693FFF72EFF7F
:10118000874B2A46C4F8A454C4F898342946854BA2
:101190000398C4F8A034C4F89C44FFF71FF8162342
:1011A00003984146ADF86C300BF0C1F81A2304984F
:1011B0002A4640F213110093C823FEF7F7FF3A4680
:1011C000394638460DF032FEA4F89850C4F8940021
:1011D0004FF0080104980AF04BFE35230598294684
:1011E00084F89A302A4633460096FEF7DFFF042340
:1011F000059818A9ADF8683019AAADF86C301AAB8B
:10120000CDF80080ADF86050ADF864A00AF0C2FFE0
:101210004FF01503C4F8C8B006983146A4F8D8308A
:101220002A463346A4F8DA900096FEF7BFFF06235D
:10123000069818A9ADF8683019AAADF86C301AAB49
:10124000CDF80080ADF86050ADF864A00AF0A2FFC0
:101250000F23C4F804B107983421A4F816311723DA
:10126000A4F81491482200937523FEF79FFF3A4695
:10127000394638460DF0DAFDA4F84451C4F840016F
:101280004FF0410107984FF00A0B0AF0F1FD4FF0C3
:101290005A030898202184F846315F229D23009646
:1012A000FEF784FF2F22CC2149200DF0BFFDA4F8CA
:1012B0007851C4F874014FF0420108980AF0D8FD43
:1012C000099833460096D7215F22FEF76FFF4FF053
:1012D000050C099818A919AA1AABCDF80080ADF829
:1012E00068C0ADF86CC0CDF85CC0ADF86050ADF82A
:1012F00064A00AF04FFF4FF015030A98A4F8B891C4
:1013000040F21311A4F8BA315F2233460096FEF77B
:101310004DFF0A9818A919AA1AABCDF80080ADF8AC
:101320006050ADF864A0ADF868B0ADF86CB00AF0EC
:1013300031FF4FF015030B98A4F8F49140F24F11D0
:10134000A4F8F6315F2233460096FEF72FFFDDF852
:101350005CC00B9818A919AA1AABCDF80080ADF89B
:1013600068C0ADF86CC0ADF86050ADF864A00AF08C
:1013700011FF4FF015030C98A4F8309240F28B1136
:10138000A4F832325F2233460096FEF70FFF0C9826
:1013900018A919AA08E000BF481C010870400108FC
:1013A000301C0108B10F00081AABCDF80080ADF871
:1013B0006050ADF864A0ADF868B0ADF86CB00AF05C
:1013C000E9FE4FF015030D98A4F86C92ED21A4F8F6
:1013D0006E321723482200934D23FEF7E7FE3A466C
:1013E000394638460DF022FDA4F89C52C4F8980204
:1013F0004FF043010D980AF03BFD4FF05A030E9851
:1014000040F2651184F89E321723482200934D2341
:10141000FEF7CCFE3A46394638460DF007FDA4F8F3
:10142000D052C4F8CC024FF044010E980AF020FDCF
:101430004FF05A030F98342184F8D2321723AF2289
:1014400000937523FEF7B2FE3A46394638460DF052
:10145000EDFCA4F80453C4F800034FF045010F98C5
:101460000AF006FD4FF05A031098202184F8063345
:10147000C6229D230096FEF799FE2F22CC214920FB
:101480000DF0D4FCA4F83853C4F834034FF04601EF
:1014900010980AF0EDFC119833460096D721C62229
:1014A000FEF784FEDDF85CC0119818A919AA1AABE2
:1014B000CDF80080ADF868C0ADF86CC0ADF86050F4
:1014C000ADF864A00AF066FE4FF015031298A4F878
:1014D000789340F21311A4F87A33C622334600966B
:1014E000FEF764FE129818A919AA1AABCDF800806D
:1014F000ADF86050ADF864A0ADF868B0ADF86CB070
:101500000AF048FE4FF015031398A4F8B49340F284
:101510004F11A4F8B633C62233460096FEF746FEB6
:10152000DDF85CC0139818A919AA1AABCDF8008091
:10153000ADF868C0ADF86CC0ADF86050ADF864A00F
:101540000AF028FE4FF015031498A4F8F09340F227
:101550008B11A4F8F233C62233460096FEF726FE1E
:10156000149818A919AA1AABCDF80080ADF86050EC
:10157000ADF864A0ADF868B0ADF86CB00AF00AFE42
:101580004FF015031598A4F82C94ED21A4F82E34EF
:101590001723AF2200934D23FEF708FE3A46394643
:1015A00038460DF043FCA4F85C54C4F858044FF0DE
:1015B000470115980AF05CFC4FF05A03169840F268
:1015C000651184F85E341723AF2200934D23FEF794
:1015D000EDFD3A46394638460DF028FCA4F8905403
:1015E000C4F88C044FF048011698251D0AF040FC01
:1015F0004FF05A032846039984F8923409F0CCF945
:101600002846049909F0C8F92846059909F0C4F953
:101610002846069909F0C0F92846079909F0BCF94F
:101620002846089909F0B8F92846099909F0B4F94B
:1016300028460A9909F0B0F928460B9909F0ACF947
:1016400028460C9909F0A8F928460D9909F0A4F943
:1016500028460E9909F0A0F928460F9909F09CF93F
:101660002846109909F098F92846119909F094F93B
:101670002846129909F090F92846139909F08CF937
:101680002846149909F088F92846159909F084F933
:101690002846169909F080F920461DB0BDE8F08F64
:1016A00008B500F1D003994205D10BF0D5FFBDE894
:1016B000084001F0D7BF00F58670814205D10BF0DC
:1016C000CBFFBDE8084001F0ADBF08BD094A02608C
:1016D00000228280C280028142818281C281028294
:1016E000428242618261C26180F82420012280F836
:1016F00025207047484801082DE9F04F04469DB069
:1017000000250DF00BF92246D34B1CAF4FF6FF76A8
:10171000E5634FF0FF0A42F8403B104603924FF05A
:10172000010927F8046DFFF7D1FFCC4B3946A4F827
:1017300066604FF00E08236404F2A44B84F86860DE
:1017400003980AF0F4FD04F16C0318461693FFF7B2
:10175000BDFFC34B84F892603C26E36604F19C0312
:10176000C4F8945084F8985018460493FFF736FC58
:1017700004F1D003184605930AF0B2FD04F5867310
:10178000184606930AF0ACFD04F5A47318460793B7
:101790000AF0A6FD04F5C273184608930AF0A0FDEE
:1017A00004F5E073184609930AF09AFD04F5FE73F8
:1017B00018460A930AF094FD04F50E7318460B932D
:1017C0000AF08EFD04F51D7318460C930AF088FD8F
:1017D00004F52C7318460D930AF082FD04F53B7353
:1017E00018460E930AF07CFD04F54A7318460F93D1
:1017F0000AF076FD04F55973184610930AF070FD4F
:1018000004F5687318461193FFF7E8FB04F5757348
:1018100018461293FFF7E2FB04F581631846139311
:10182000FFF7DCFB04F23C4318461493FFF7D6FBAA
:1018300004F58E6318461593FFF7D0FB894B2A46B3
:10184000C4F8B054C4F8A4342946874B0398C4F8AC
:10185000AC34C4F8A844FEF7C1FC162303983946FB
:10186000ADF86C300AF063FD2C2316987E2110220F
:10187000009340F25313FEF799FC514652465046EE
:101880000DF0D4FA2D23C4F89400C42184F89230CA
:101890001A23049819220093C723FEF787FC3D22E0
:1018A000E32162200DF0C2FAA4F8C850C4F8C400C5
:1018B0004FF0080104980AF0DBFA9F2300962946AE
:1018C00084F8CA302A4605983346FEF76FFC042395
:1018D000059818A9ADF8683019AAADF86C301AABA4
:1018E0000097ADF86050ADF864900AF053FC4FF0EB
:1018F0001503C4F8F8B000963146A4F808312A461A
:1019000006983346A4F80A81FEF750FC0623069891
:1019100018A9ADF8683019AAADF86C301AAB009769
:10192000ADF86050ADF864900AF034FC0F23C4F8B1
:1019300034B100963D21A4F84631BD2207983346C4
:10194000A4F844814FF00A0BFEF730FC4FF0050C71
:10195000079818A919AA1AAB0097ADF868C0ADF896
:101960006CC0CDF85CC0ADF86050ADF864900AF082
:1019700011FC4FF01503009608987821A4F88231E5
:10198000BD223346A4F88081FEF710FC089818A900
:1019900019AA1AAB0097ADF86050ADF86490ADF895
:1019A00068B0ADF86CB00AF0F5FB4FF01503009687
:1019B0000998B521A4F8BE31BD223346A4F8BC81F4
:1019C000FEF7F4FBDDF85CC0099818A919AA1AAB58
:1019D0000097ADF868C0ADF86CC0ADF86050ADF8D8
:1019E00064900AF0D7FB4FF0150300960A98F12196
:1019F000A4F8FA31BD223346A4F8F881FEF7D6FBED
:101A00000A9818A919AA1AAB0097ADF86050ADF85A
:101A10006490ADF868B0ADF86CB00AF0BBFB4FF065
:101A2000150300960B9840F22D11A4F83632BD2212
:101A30003346A4F83482FEF7B9FBDDF85CC00B989E
:101A400018A919AA1AAB0097ADF868C0ADF86CC018
:101A5000ADF860500AE000BF981C01087040010812
:101A6000C03E0108801C0108A1160008ADF8649072
:101A70000AF090FB4FF0150300960C9840F26911A4
:101A8000A4F87232BD223346A4F87082FEF78EFBB2
:101A90000C9818A919AA1AAB0097ADF86050ADF8C8
:101AA0006490ADF868B0ADF86CB00AF073FB4FF01D
:101AB000150300960D987821A4F8AE3260223346C3
:101AC000A4F8AC82FEF772FBDDF85CC00D9818A993
:101AD00019AA1AAB0097ADF868C0ADF86CC0ADF8A4
:101AE0006050ADF864900AF055FB4FF01503009676
:101AF0000E98B421A4F8EA3260223346A4F8E882B2
:101B0000FEF754FB0E9818A919AA1AAB0097ADF866
:101B10006050ADF86490ADF868B0ADF86CB00AF004
:101B200039FB4FF0150300960F98F021A4F82633E7
:101B300060223346A4F82483FEF738FBDDF85CC04E
:101B40000F9818A919AA1AAB0097ADF868C0ADF89C
:101B50006CC0ADF86050ADF864900AF01BFB4FF01C
:101B60001503009610984FF49671A4F86233602222
:101B70003346A4F86083FEF719FB109818A919AA38
:101B80001AAB0097ADF860505A26ADF86490ADF8E6
:101B900068B0ADF86CB00AF0FDFA4FF0150311987B
:101BA000A4F89C838321A4F89E331A234622009331
:101BB0006323FEF7FBFA5246514650460DF036F9C4
:101BC000A4F8CC53C4F8C8034FF0350111980AF0BB
:101BD0004FF91A231298FB2100934622632384F8BD
:101BE000CE63FEF7E3FA5246514650460DF01EF919
:101BF000A4F80054C4F8FC034FF0360112980AF020
:101C000037F91A23139848210093A322632384F8F9
:101C10000264FEF7CBFA5246514650460DF006F9E3
:101C2000A4F83454C4F830044FF0370113980AF084
:101C30001FF91A231498C0210093A322632384F868
:101C40003664FEF7B3FA5246514650460DF0EEF8B0
:101C5000A4F86854C4F864044FF0380114980AF0EA
:101C600007F91A2315984FF49C710093A32263235C
:101C700084F86A64FEF79AFA5246514650460DF0CF
:101C8000D5F8A4F89C54251DC4F898044FF03901E8
:101C900015980AF0EDF82846039984F89E6408F038
:101CA0007BFE2846169908F077FE2846049908F02E
:101CB00073FE2846059908F06FFE2846069908F03D
:101CC0006BFE2846079908F067FE2846089908F039
:101CD00063FE2846099908F05FFE28460A9908F035
:101CE0005BFE28460B9908F057FE28460C9908F031
:101CF00053FE28460D9908F04FFE28460E9908F02D
:101D00004BFE28460F9908F047FE2846109908F028
:101D100043FE2846119908F03FFE2846129908F024
:101D20003BFE2846139908F037FE2846149908F020
:101D300033FE2846159908F02FFE20461DB0BDE859
:101D4000F08F00BF6C30884208B505D10BF084FCE1
:101D5000BDE8084001F076BC08BD000010B504469F
:101D6000FFF7B4FC01230022204684F82430094BFD
:101D7000A26223604FF6FF7384F82C20E38523864C
:101D80006386A38684F8363084F8372084F83820B8
:101D900010BD00BF884101082DE9F04F044699B0FD
:101DA00000250CF0BBFDA346DB4B18AF4FF6FF78C8
:101DB000E5634FF001094BF8403B584627F8048D86
:101DC000FFF784FCD54B3946A4F866805846236457
:101DD0004FF03C0A84F868804FF00E080AF0A7FA2A
:101DE00004F16C03FF26184606930AF079FA04F111
:101DF000A803184607930AF073FA04F1E40318469F
:101E000008930AF06DFA04F5907318460993FFF7EA
:101E1000E5F804F5AA7318460A93FFF7DFF804F50E
:101E2000C47318460B93FFF7D9F804F5DE73184610
:101E30000C93FFF7D3F804F5F87318460D93FFF7EA
:101E4000CDF804F5097318460E9309F0C9FE04F5A0
:101E5000177318460293FFF781FF04F5277318469E
:101E60000393FFF77BFF04F5377318460493FFF7DE
:101E700075FF04F5477318460F93FFF7AFF804F5A5
:101E8000547318461093FFF7A9F804F561731846C8
:101E90001193FFF7A3F804F56E7318461293FFF73A
:101EA0009DF804F57B734FF0240CA4F8FC530593C4
:101EB00058469B4B2946059AC4F8EC33994BC4F815
:101EC00008C4C4F80034C4F810342823C4F8042427
:101ED000C4F81834944BC4F80C94C4F82834934BC9
:101EE000C4F814242A46C4F81C94C4F82054C4F836
:101EF0002454C4F83034C4F83454C4F82C44CDF815
:101F00004CC0FEF76BF9162358463946ADF85C30E5
:101F10000AF00DFACDF800A0534606984FF4D2719E
:101F20002E22FEF743F90923009714A9ADF8583083
:101F300015AAADF85C3016AB0698ADF85050ADF868
:101F400054900AF027F904F58563CDF800A00798AE
:101F50004FF4D271C4F894306A225346A4F8A48096
:101F6000A4F8A680FEF722F90723009714A9ADF87C
:101F7000583015AAADF85C3016AB0798ADF8505044
:101F8000ADF854900AF006F9CDF800A05346089831
:101F90004FF0080AA4F8E0804FF4D271A4F8E28070
:101FA000A622FEF703F90097089814A915AA16AB04
:101FB000ADF85050ADF85490ADF858A0ADF85CA015
:101FC0000AF0E8F80F230998EC215222A4F81C31FA
:101FD000A4F81E31562300939523FEF7E7F8272235
:101FE000992129200CF022FFA4F84C51C4F8480193
:101FF0002946099809F03CFF0A98EF214822FEF78C
:10200000EDF83246314630460CF010FFA4F880510E
:10201000C4F87C0149460A984FF03F0909F028FFAF
:1020200056230B98352100935222942384F88291F1
:10203000FEF7BCF82722992129200CF0F7FEA4F81E
:10204000B451C4F8B0014FF002010B9809F010FF31
:102050000C9844214822FEF7C1F8324631463046FA
:102060000CF0E4FEA4F8E851C4F8E4014FF00301D9
:102070000C9809F0FDFE1A230D982A46009340F2B1
:102080001311C82384F8EA91FEF790F832463146DE
:1020900030460CF0CBFEA4F81C52C4F8180251468E
:1020A0000D984FF00C0A09F0E3FE35230E98142129
:1020B00084F81E322623CE2200936023FEF776F8A2
:1020C00012230E9816A9ADF8583013233A46A4F8F7
:1020D0005832ADF85C3009F051FF02989D21CC22B6
:1020E000FEF77CF84FF00B0315AA0097ADF85830B7
:1020F0004FF00D03029814A9ADF85C3016ABADF8A3
:1021000050A0ADF854800AF082FA029829460AF0ED
:102110005BFB84F894520BE0381D01087040010805
:10212000E81C0108D01C0108201D0108451D0008FD
:102130000398FD21CC22FEF751F84FF00B0315AAAE
:102140000097ADF858304FF00D03039814A9ADF87F
:102150005C3016ABADF850A0ADF854800AF057FAD9
:10216000039829460AF030FB84F8D45204984FF4BF
:10217000AD71CC22FEF732F84FF00B0315AA009791
:10218000ADF858304FF00D03049814A9ADF85C3049
:1021900016ABADF850A01427ADF854800AF037FA0A
:1021A000049829460AF010FB84F814530F985146FE
:1021B000BA22FEF713F83246314630460CF036FEAE
:1021C000A4F84853C4F844034FF021010F9809F0D4
:1021D0004FFE702310987B2184F84A93BA2200970F
:1021E000FDF7E4FF3246314630460CF01FFEA4F8FE
:1021F0007C53C4F878034FF02201109809F038FEA0
:1022000070231198DB2184F87E93BA220097FDF7A2
:10221000CDFF3246314630460CF008FEA4F8B053EC
:10222000C4F8AC034FF02301119809F021FE70238C
:1022300012984FF49B7184F8B293BA220097FDF77D
:10224000B5FF3246314630460CF0F0FDDDF84CC0AB
:10225000A4F8E453251D6146C4F8E003129809F080
:1022600007FE2846594684F8E69308F095FB284671
:10227000069908F091FB2846079908F08DFB28463F
:10228000089908F089FB2846099908F085FB28463B
:102290000A9908F081FB28460B9908F07DFB284637
:1022A0000C9908F079FB28460D9908F075FB284633
:1022B0000E9908F071FB2846029908F06DFB28463C
:1022C000039908F069FB2846049908F065FB284645
:1022D0000F9908F061FB2846109908F05DFB28462D
:1022E000119908F059FB2846129908F055FB0598FA
:1022F0000299FEF775F905980399FEF771F90598AB
:102300000499FEF76DF9204619B0BDE8F08F00BFC3
:1023100008B500F1A003994205D10BF09DF9BDE885
:10232000084001F07FB9DC30814205D10BF094F90F
:10233000BDE8084001F096B908BD1388838609F00E
:102340001DBE00002DE9F04F04469BB000250CF0A7
:10235000E5FAA346DA4BDB4A1AAFE5634FF0010812
:102360004BF8403B4FF6FF732264584627F8043D74
:102370003946A4F84450FF26A4F8465004F589696C
:10238000A4F848504FF00E0AA4F84A50A4F84C5054
:10239000A4F84E50A4F85050A4F852506565A565B5
:1023A000E56584F8645084F86580A4F8663084F8A4
:1023B000683009F0BCFF04F16C0318460393FEF784
:1023C0000DFE04F1A0031846049309F089FF04F1FF
:1023D000DC031846059309F083FF04F58C73184657
:1023E000069309F0FDFB04F5A8731846079309F05E
:1023F000F7FB04F5C4731846089309F0F1FB04F5E4
:10240000E0731846099309F0EBFB04F5FC731846DA
:102410000A9309F0E5FB04F50C7318460B9309F0D9
:10242000DFFB04F51A7318460C9309F0D9FB04F589
:10243000287318460D9309F0D3FB04F5367318463C
:102440000E9309F0CDFB04F5447318460F93FEF785
:10245000C5FD04F5517318461093FEF7BFFD04F552
:102460005E7318461193FEF7B9FD04F56B731846B9
:102470001293FEF7B3FD04F5787318461393FEF735
:10248000ADFD04F2144318461493FEF7A7FD8E4BDE
:102490002A46C4F85454C4F8483458468B4B29464D
:1024A000C4F84C44C4F85034FDF798FE162358463F
:1024B0003946ADF8643009F03AFF1A2303982A46EA
:1024C00040F213110093C823FDF770FE32463146E7
:1024D00030460CF0ABFCA4F89850C4F894004FF0D0
:1024E0000801039809F0C4FC4FF03C0C3523049814
:1024F000CDF800C0614684F89A302A466346CDF88C
:1025000054C0FDF753FE0623009716A9ADF86030BE
:1025100017AAADF8643018AB0498ADF85850ADF870
:102520005C8009F037FEDDF854C00F23A4F8D8A072
:102530002946CDF800C02A46A4F8DA306346C4F82C
:10254000C8900598FDF732FE0423009716A9ADF850
:10255000603017AAADF8643018AB0598ADF8585044
:10256000ADF85C8009F016FE4FF01508A4F816A12E
:102570004FF0260AC4F8049106984FF0140960231E
:10258000A4F81481CDF800A082217322FDF70EFE7D
:10259000069818A93A46ADF86090ADF86480FFF748
:1025A000CCFE07986023CDF800A04FF4A171BF22A4
:1025B000FDF7FCFD079818A93A46ADF86090ADF814
:1025C0006480FFF7BAFE08986023CDF800A0E221EE
:1025D000BF22FDF7EBFD089818A93A46ADF86090C8
:1025E000ADF86480FFF7A9FE09986023CDF800A03C
:1025F0008221BF22FDF7DAFD099818A93A46ADF805
:102600006090ADF86480FFF798FE0A986023CDF8DB
:1026100000A04FF4A1719922FDF7C8FD0A9818A9EE
:102620003A46ADF86090ADF86480FFF786FE0B98EF
:102630006023CDF800A0E2219922FDF7B7FD0B98A9
:1026400018A93A46ADF86090ADF86480FFF775FEC2
:102650000C986023CDF800A082219922FDF7A6FDF9
:102660000C9818A93A46ADF86090ADF86480FFF771
:1026700064FE0D986023CDF800A04FF4A171732281
:10268000FDF794FD0D9818A93A46ADF86090ADF8A5
:102690006480FFF752FE0E986023CDF800A0E2217F
:1026A0007322FDF783FDADF860904FF017090E9887
:1026B00018A93A46ADF86480FFF73FFE562307E0BD
:1026C000881D010870400108701D010811230008D1
:1026D0000F98CDF80090872151225A27FDF766FD0B
:1026E0003246314630460CF0A1FBA4F83C53C4F806
:1026F00038034FF03B010F9809F0BAFB7323109891
:10270000092184F83E73C722CDF80090FDF74EFDF5
:102710003246314630460CF089FBDDF854C0C4F82F
:102720006C036146A4F87053109809F0A1FB732361
:102730001198092184F87273A122CDF80080FDF769
:1027400035FD3246314630460CF070FBA4F8A453F8
:10275000C4F8A0034FF03D01119809F089FB19233B
:102760001298092100937B22732384F8A673FDF746
:102770001DFD3246314630460CF058FBA4F8D853C4
:10278000C4F8D4034FF03E01129809F071FB5623B0
:10279000139840F2471184F8DA735122CDF8009073
:1027A000FDF704FD3246314630460CF03FFBA4F8FD
:1027B0000C54C4F808044FF03F01139809F058FB7B
:1027C00056231498E72184F80E745122CDF8009016
:1027D000FDF7ECFC3246314630460CF027FBA4F8FE
:1027E0004054251DC4F83C044FF04001149809F0F2
:1027F0003FFB2846594684F8427408F0CDF8284635
:10280000039908F0C9F82846049908F0C5F8284645
:10281000059908F0C1F82846069908F0BDF8284641
:10282000079908F0B9F82846089908F0B5F828463D
:10283000099908F0B1F828460A9908F0ADF8284639
:102840000B9908F0A9F828460C9908F0A5F8284635
:102850000D9908F0A1F828460E9908F09DF8284631
:102860000F9908F099F82846109908F095F828462D
:10287000119908F091F82846129908F08DF8284629
:10288000139908F089F82846149908F085F820462D
:102890001BB0BDE8F08F00BF08B500F1A00399425E
:1028A00005D10AF0D9FEBDE8084000F0DBBEDC30FF
:1028B000814205D10AF0D0FEBDE8084000F0B2BE6A
:1028C00008BD000010B50446FEF700FF054B20468A
:1028D0002360FF2384F826300023A36284F82C3081
:1028E00010BD00BFC03E010810B50446FEF776FBE0
:1028F000024B204623600023636310BDC01D010806
:102900002DE9F04F0446A5B000250CF007F822464B
:10291000DB4B0DF1900A4FF6FF76E56304F5447B3F
:1029200042F8403B104603924FF01A092AF8046D12
:10293000FEF7CCFED34B5146A4F866604FF0FF087B
:1029400023643C2784F868600E26039809F0EFFCA6
:1029500004F16C0318460793FEF740FB04F1A00353
:102960001846089309F0BCFC04F1DC0318460993EF
:1029700009F0B6FC04F58C731846049308F0A8FB24
:1029800004F505731846059308F0A2FB584608F0B5
:102990009FFB04F20C431846069308F099FB04F5DC
:1029A000A16318460A93FEF719FB04F23C5318463C
:1029B0000B93FEF713FB04F5AE6318460C93FEF77A
:1029C0000DFB04F2A45318460D93FEF707FB04F524
:1029D000BB6318460E93FEF701FB04F20C63184626
:1029E0000F93FEF7FBFA04F5C86318461A93FFF736
:1029F00069FF04F5CE6318461B93FFF763FF04F5E8
:102A0000D46318461C93FFF75DFF04F5DA6318469C
:102A10001D93FFF757FF04F5E06318461093FFF787
:102A200063FF04F5E76318461193FFF75DFF04F5B4
:102A3000EE6318461293FFF757FF04F5F563184647
:102A40001393FFF751FF04F5FC6318461493FEF748
:102A5000C5FA04F6140318461593FEF7BFFA04F6F8
:102A6000480318461693FEF7B9FA04F67C03184695
:102A70001793FEF7B3FA04F50B6318461893FEF7A5
:102A8000ADFA04F6E40318461993FEF7A7FA7E4B55
:102A90002A46C4F82C59C4F8203929467B4B0398A0
:102AA000C4F82839C4F82449FDF798FB1623039885
:102AB0005146ADF88C3009F03AFCC82307982A46F5
:102AC000CDF8009040F21311FDF770FB42464146ED
:102AD00040460CF0ABF9A4F89850C4F894004FF0BD
:102AE0000801079809F0C4F94FF03503009729460B
:102AF00084F89A302A4608983B46FDF757FB042392
:102B00004FF0010C0898ADF8883020A9ADF88C3052
:102B100021AA22ABCDF800A0ADF884C0CDF87CC0CE
:102B2000ADF8805009F036FB1523A4F8DA60009761
:102B30003946A4F8D83004F5126309982A461E9342
:102B4000C4F8C8303B46FDF731FB0623DDF87CC0F6
:102B500020A9ADF8883021AAADF88C3022AB0998B5
:102B6000CDF800A0ADF884C0ADF8805009F012FB9C
:102B70001E9B21A9A4F814610F26C4F804314FF05C
:102B80001003A4F8166122AAADF884304FF01103A7
:102B90000498ADF888305346ADF88C6008F0F6FA2A
:102BA00004983A4640F2A511FDF718FB0522882348
:102BB000049829468DE80C0003232A4608F0A8F95A
:102BC00004985A220A2108F0A6F804980A2108F06D
:102BD0002CF84FF01003059821A9ADF884304FF080
:102BE000110322AAADF88C60ADF88830534608F086
:102BF000CDFA05983A464FF49071FDF7EFFA0521AA
:102C0000882305982A468DE80A000323294608F000
:102C10007FF905983146232208F07DF80598314662
:102C200008F003F84FF01003584621A9ADF884309E
:102C30004FF0110322AAADF88C60ADF888305346EE
:102C400008F0A4FA58463A4640F26311FDF7C6FA76
:102C50000520882329462A468DE809000323584683
:102C600008F056F958465A220A2108F054F85846F6
:102C70000A2107F0DAFF4FF01003069808E000BFC2
:102C8000281A010870400108401E01089928000810
:102C900021A9ADF884304FF0110322AAADF88C6061
:102CA000ADF88830534608F071FA06983A46DC21B0
:102CB000FDF794FA88270523069829462A468DE8C9
:102CC00088000323272708F023F90698314623229A
:102CD00008F021F8069831465A2607F0A6FF0A9810
:102CE000E8211B22FDF77AFA4246414640460CF0A5
:102CF0009DF8A4F83455C4F830054FF017010A9830
:102D000009F0B6F80B9884F836654FF4BE711B22B3
:102D1000FDF764FA4246414640460CF087F8A4F8B5
:102D20006855C4F864054FF018010B9809F0A0F835
:102D30000C9884F86A65E3212E22FDF74FFA42468B
:102D4000414640460CF072F8A4F89C55C4F898052A
:102D50004FF019010C9809F08BF80D9884F89E65D6
:102D60004FF4B5712E22FDF739FA424641464046EE
:102D70000CF05CF8A4F8D055C4F8CC0549460D9881
:102D800009F076F80E9884F8D2654FF491712E22EE
:102D9000FDF724FA4246414640460CF047F8A4F8B5
:102DA0000456C4F800064FF01B010E9809F060F8B5
:102DB0000F9884F806664FF4D4712E22FDF70EFAB0
:102DC0004246414640460CF031F8A4F83856C4F863
:102DD00034064FF01C010F9809F04AF81A9837236F
:102DE00084F83A66CDF8009027216322FDF7DEF9DA
:102DF0004146424640460CF019F83723C4F86806AD
:102E000082211B98C62284F86676CDF80090FDF7E3
:102E1000CDF94146424640460CF008F83723C4F845
:102E2000980682211C98632284F89676CDF800904B
:102E3000FDF7BCF94146424640460BF0F7FF372309
:102E4000C4F8C80625211D98C62284F8C676CDF898
:102E50000090FDF7ABF94146424640460BF0E6FFD5
:102E60003723C4F8F80682211098632284F8F67696
:102E7000CDF80090FDF79AF92822B82123200BF015
:102E8000D5FFA4F82C57C4F828074FF01D0110985F
:102E900008F0EEFF04F61813A4F818598421C4F8BA
:102EA0003437C62233231198CDF80090FDF77EF910
:102EB0002822B82123200BF0B9FFA4F86457C4F8E6
:102EC00060074FF01E01119808F0D2FF04F61A13A4
:102ED000A4F81A593946C4F86C37C622332312981D
:102EE000CDF80090FDF762F92822B82123200BF0DD
:102EF0009DFFA4F89C57C4F898074FF01F01129843
:102F000008F0B6FF04F61C13A4F81C593946C4F89F
:102F1000A437632237231398CDF80090FDF746F9C4
:102F20002822B82123200BF081FFA4F8D457C4F83D
:102F3000D0074FF02001139808F09AFF04F61E13F3
:102F4000A4F81E594621C4F8DC3742221498FDF734
:102F500045F94246414640460BF068FFA4F80C583C
:102F6000C4F808084FF02501149808F081FF15985F
:102F700084F80E685321A522FDF730F942464146F8
:102F800040460BF053FFA4F84058C4F83C084FF0FB
:102F90002601159808F06CFF169884F842683521D0
:102FA0005222FDF71BF94246414640460BF03EFFD8
:102FB000A4F87458C4F870083946169808F058FFF9
:102FC000179884F876688C215222FDF707F942465B
:102FD000414640460BF02AFFA4F8A858C4F8A408BC
:102FE0004FF02801179808F043FF189884F8AA6852
:102FF0003521B522FDF7F2F84246414640460BF036
:1030000015FFA4F8DC58C4F8D8084FF02B01189825
:1030100008F02EFF199884F8DE688C21B522FDF7A0
:10302000DDF84246414640460BF000FFA4F8105937
:10303000251DC4F80C094FF02C01199808F018FF51
:103040002846039984F8126907F0A6FC28460799D8
:1030500007F0A2FC2846089907F09EFC284609992B
:1030600007F09AFC2846049907F096FC2846059933
:1030700007F092FC2846594607F08EFC2846069930
:1030800007F08AFC28460A9907F086FC28460B9927
:1030900007F082FC28460C9907F07EFC28460D9923
:1030A00007F07AFC28460E9907F076FC28460F991F
:1030B00007F072FC28461A9907F06EFC28461B9907
:1030C00007F06AFC28461C9907F066FC28461D9903
:1030D00007F062FC2846109907F05EFC284611991B
:1030E00007F05AFC2846129907F056FC2846139917
:1030F00007F052FC2846149907F04EFC2846159913
:1031000007F04AFC2846169907F046FC284617990E
:1031100007F042FC2846189907F03EFC284619990A
:1031200007F03AFC204625B0BDE8F08F70477047A5
:1031300041607047704701230372704770477047C2
:1031400010B5C268836812F0010F40684FEA62024E
:1031500018BF8458104418BFE358BDE81040184702
:1031600043682BB183682BB9C06800F00100704739
:10317000184670470120704710B5C268836812F086
:10318000010F40684FEA620218BF8458104418BF0C
:10319000E358BDE81040184743682BB183682BB94A
:1031A000C06800F001007047184670470120704762
:1031B00010B504460EF052F8204610BD10B5044676
:1031C0000EF04CF8204610BD10B504460EF046F83F
:1031D000204610BD70B516460C4605460AF03CFA6E
:1031E0000AF040FA306810B10368DB68984730682D
:1031F00010B103681B689847286810B103685B69C1
:103200009847206810B103685B689847286810B138
:1032100003681B689847206820B10368BDE87040C8
:103220009B68184770BD70B503680E461446054686
:10323000DB689847336830461B6898472146284624
:103240000BF0CFFC236820461B6998470AF004FA6C
:103250000368BDE870409B6A18470346084610B5EE
:10326000DA6B914218D093F85020032A12D8DFE885
:1032700002F0080802020268B3F95610546D0022E9
:1032800004E002680021546DB3F956202346BDE8DE
:103290001040184701221A7210BD0346084610B5A7
:1032A000DA6B914218D093F85020032A12D8DFE845
:1032B00002F0080802020268B3F95610546D0022A9
:1032C00004E002680021546DB3F956202346BDE89E
:1032D0001040184701221A7210BD0000044B01462D
:1032E0001B7823B140680C3103689B6E1847704708
:1032F0006838002010B590F85030032B28D8DFE84C
:1033000003F0141D020A0B680846124A5B6DB2F9FD
:103310000010002219E00F4B08460A681B88546D04
:1033200000225B4219B223460FE00B4A08460B68A5
:10333000002112885B6D524212B206E00B6808460B
:10334000054A00215B6DB2F90020BDE81040184726
:1033500010BD00BF6C3800206A380020044B0146C5
:103360001B7823B140680C3103689B6E1847704787
:103370006838002010B590F85030032B28D8DFE8CB
:1033800003F0141D020A0B680846124A5B6DB2F97D
:103390000010002219E00F4B08460A681B88546D84
:1033A00000225B4219B223460FE00B4A08460B6825
:1033B000002112885B6D524212B206E00B6808468B
:1033C000054A00215B6DB2F90020BDE810401847A6
:1033D00010BD00BF6C3800206A3800202B4B10B5A0
:1033E0001B78044613B90123037210BD90F85200F4
:1033F00094F851300130C0B2984284F8520010D88D
:10340000B4F9542000210BF009FC83B2DA070ED581
:1034100000284FF6FF72C8BF01221344A4F85630AB
:1034200007E001232372002384F8523010BDA4F872
:10343000560094F85030032B1DD8DFE803F00E0E31
:103440000202B4F8563004F10C00218A0022591A05
:1034500089B2A4F8561009B20AE0B4F8563004F163
:103460000C00628A00219A1A92B2A4F8562012B275
:103470000AF0DFFF01E001232372606804F14001DC
:103480000368BDE81040DB6F184700BF68380020B4
:103490002B4B10B51B78044613B90123037210BDE2
:1034A00090F8520094F851300130C0B2984284F83C
:1034B000520010D8B4F9542000210BF0AFFB83B2B6
:1034C000DA070ED500284FF6FF72C8BF0122134459
:1034D000A4F8563007E001232372002384F8523009
:1034E00010BDA4F8560094F85030032B1DD8DFE827
:1034F00003F00E0E0202B4F8563004F10C00218ADB
:103500000022591A89B2A4F8561009B20AE0B4F898
:10351000563004F10C00628A00219A1A92B2A4F883
:10352000562012B20AF085FF01E001232372606881
:1035300004F140010368BDE81040DB6F184700BF8D
:10354000683800201FB50C4B04461B788BB10B4B21
:10355000694640688DE818001823029301230393FD
:103560000368DB6F9847606804F10C0103685B6EC9
:10357000984704B010BD00BF68380020D01E010875
:103580001FB50C4B04461B788BB10B4B694640684A
:103590008DE8180018230293012303930368DB6F5F
:1035A0009847606804F10C0103685B6E984704B0AB
:1035B00010BD00BF68380020101F010870B5044618
:1035C00016460D460AF06EF80B4A0023C4F8206137
:1035D00020461460094AC4F808312260084AC4F839
:1035E0000C31C4F81021C4F81431C4F81831C4F8EF
:1035F0001C31C4F8245170BDCC380020701E010865
:10360000581E0108064BC0F81401C0F818310023F9
:10361000C0F81C3100F58873C0F80C31704700BF4A
:10362000E5370008064BC0F81401C0F81831002334
:10363000C0F81C3100F58873C0F80C31704700BF2A
:10364000F5390008064BC0F81401C0F81831002302
:10365000C0F81C3100F58873C0F80C31704700BF0A
:10366000A13C0008064BC0F81401C0F81831002333
:10367000C0F81C3100F58873C0F80C31704700BFEA
:10368000F53A0008064BC0F81401C0F818310023C1
:10369000C0F81C3100F58873C0F80C31704700BFCA
:1036A0009D3D0008064BC0F81401C0F818310023F6
:1036B000C0F81C3100F58873C0F80C31704700BFAA
:1036C0009D3E0008064BC0F81401C0F818310023D5
:1036D000C0F81C3100F58873C0F80C31704700BF8A
:1036E000993F0008064BC0F81401C0F818310023B8
:1036F000C0F81C3100F58873C0F80C31704700BF6A
:10370000954000082DE9F047804690689A46894622
:1037100003681446089F1B6A9847B0F5876F04D268
:103720002A48DA212A4A2B4B09E0606803681B6AA1
:1037300098470F2805D82548DB21254A264B00F05D
:10374000F3FEE06803681B6A98470B2804D81F48FB
:10375000DC211F4A214BF2E7404649465246FFF71B
:1037600039FDE068002103685B6A9847054620B18F
:103770000023436003721A4B0360A06800210368B2
:103780005B6A9847064608B1FCF77AFF606800213B
:1037900003685B6A9847044610B13146FCF78AFF1C
:1037A000CAF80050C9F80040C8F800600CB1231DE9
:1037B00000E023463B603046A7602146F4632A467A
:1037C000FFF731FD2046BDE8F08700BFE423010884
:1037D0009C21010825240108B3240108562501086D
:1037E000B01E010807B50346D0F824210548009211
:1037F00003F58471D3F82021034BFFF783FF03B057
:103800005DF804FBD0380020E038002003685B6AD4
:1038100018470000044B10B5044640F80C3B08F074
:1038200001FA204610BD00BF281F010810B504464C
:10383000FFF7F0FF20460DF011FD204610BD0000FF
:10384000044B10B5044640F80C3B08F0EBF9204659
:1038500010BD00BFE81E010810B50446FFF7F0FFD9
:1038600020460DF0FBFC204610BD00002DE9F34181
:10387000254B4FF0000805460446C0F804800E466C
:1038800080F8088045F80C3B284608F01FFA1F4BCB
:10389000E56323641C236464A364012384F85160FA
:1038A000E364032384F8528084F85030184BA4F862
:1038B00056801B781BB3174E2846174F4146B6F962
:1038C0000020B7F9003000924246FCF76FFC284612
:1038D00008F0AAF994F85030032B0ED8DFE803F073
:1038E000080A02043B8806E03B88A4F8543006E04E
:1038F0003388FAE733885B42F7E7012323722046D7
:1039000002B0BDE8F08100BFE81E0108D01E01082A
:10391000683800206A3800206C3800202DE9F04714
:10392000804690689A46894603681446089F1B6A39
:103930009847B0F5876F04D22948DA21294A2A4BE3
:1039400009E0606803681B6A98470F2805D8244877
:10395000DB21244A254B00F0E7FDE06803681B6A81
:103960009847572804D81E48DC211E4A204BF2E70E
:10397000404649465246FFF72DFCE06800210368A7
:103980005B6A9847064610B11421FFF76FFFA068E5
:10399000002103685B6A9847054608B1FCF770FE92
:1039A0006068002103685B6A9847044610B12946A5
:1039B000FCF780FECAF80060C9F80040C8F8005063
:1039C0000CB1231D00E023463B602846A76021463A
:1039D000EC633246FFF727FC2046BDE8F08700BFC6
:1039E000E42301087620010825240108B3240108F6
:1039F0005625010807B50346D0F824210548009252
:103A000003F58471D3F82021034BFFF787FF03B040
:103A10005DF804FBD0380020E03800202DE9F047A5
:103A2000804690689A46894603681446089F1B6A38
:103A30009847B0F5FE7F04D22948DA21294A2A4B5B
:103A400009E0606803681B6A98470F2805D8244876
:103A5000DB21244A254B00F067FDE06803681B6A00
:103A60009847572804D81E48DC211E4A204BF2E70D
:103A7000404649465246FFF7ADFBE0680021036827
:103A80005B6A9847064610B11421FFF7EFFEA06865
:103A9000002103685B6A9847054608B1FCF70AFCF9
:103AA0006068002103685B6A9847044610B12946A4
:103AB000FCF71AFCCAF80060C9F80040C8F80050CA
:103AC0000CB1231D00E023463B602846A760214639
:103AD000EC633246FFF7A7FB2046BDE8F08700BF46
:103AE000E42301087528010825240108B3240108EE
:103AF0005625010807B50346D0F824210548009251
:103B000003F58471D3F82021034BFFF787FF03B03F
:103B10005DF804FBD0380020E03800202DE9F341A7
:103B2000254B4FF0000805460446C0F804800E46B9
:103B300080F8088045F80C3B284608F0C7F81F4B72
:103B4000E56323641C236464A364012384F8516047
:103B5000E364022384F8528084F85030184BA4F8B0
:103B600056801B781BB3174E2846174F4146B6F9AF
:103B70000020B7F9003000924246FCF717FB2846B8
:103B800008F052F894F85030032B0ED8DFE803F019
:103B9000080A02043B8806E03B88A4F8543006E09B
:103BA0003388FAE733885B42F7E701232372204624
:103BB00002B0BDE8F08100BF281F0108101F0108F6
:103BC000683800206A3800206C3800202DE9F04762
:103BD000804690689A46894603681446089F1B6A87
:103BE0009847B0F5FE7F04D22848DA21284A294BAD
:103BF00009E0606803681B6A98470F2805D82348C6
:103C0000DB21234A244B00F08FFCE06803681B6A29
:103C10009847572804D81D48DC211D4A1F4BF2E75E
:103C2000404649465246FFF7D5FAE0680021FFF7C3
:103C3000EDFD064610B11421FFF770FFA0680021CA
:103C400003685B6A9847054608B1FCF733FB606878
:103C5000002103685B6A9847044610B12946FCF7C7
:103C600043FBCAF80060C9F80040C8F800500CB126
:103C7000231D00E023463B602846A7602146EC63F5
:103C80003246FFF7D0FA2046BDE8F087E42301086A
:103C9000481F010825240108B324010856250108FE
:103CA00007B50346D0F824210548009203F5847136
:103CB000D3F82021034BFFF789FF03B05DF804FB25
:103CC000D0380020E03800202DE9F0478046906889
:103CD0009A46894603681446089F1B6A9847B0F5C0
:103CE000136F04D22848DA21284A294B09E060687A
:103CF00003681B6A98470F2805D82348DB21234A0D
:103D0000244B00F011FCE06803681B6A98475728B1
:103D100004D81D48DC211D4A1F4BF2E740464946A6
:103D20005246FFF757FAE0680021FFF76FFD06469D
:103D300010B11421FFF7F2FEA068002103685B6A4E
:103D40009847054608B1FCF77DFE606800210368CE
:103D50005B6A9847044610B12946FCF731FDCAF862
:103D60000060C9F80040C8F800500CB1231D00E005
:103D700023463B602846A7602146EC633246FFF7A6
:103D800052FA2046BDE8F087E4230108A329010880
:103D900025240108B32401085625010807B5034668
:103DA000D0F824210548009203F58471D3F820212E
:103DB000034BFFF789FF03B05DF804FBD038002008
:103DC000E03800202DE9F047804690689A46894601
:103DD00003681446089F1B6A984740F2B443984210
:103DE00004D22948DA21294A294B09E0606803688E
:103DF0001B6A98470F2805D82348DB21234A254B07
:103E000000F092FBE06803681B6A9847572804D8C3
:103E10001D48DC211D4A204BF2E7404649465246E8
:103E2000FFF7D8F9E0680021FFF7F0FC064610B173
:103E30001421FFF773FEA068002103685B6A9847AE
:103E4000054608B1FCF7E6FA6068002103685B6A82
:103E50009847044610B12946FCF704FBCAF80060F5
:103E6000C9F80040C8F800500CB1231D00E02346FB
:103E70003B602846A7602146EC633246FFF7D3F942
:103E80002046BDE8F08700BFE4230108F9250108BA
:103E900025240108B32401085625010807B5034667
:103EA000D0F824210548009203F58471D3F820212D
:103EB000034BFFF787FF03B05DF804FBD038002009
:103EC000E03800202DE9F047804690689A46894600
:103ED00003681446089F1B6A9847B0F5956F04D293
:103EE0002848DA21284A294B09E0606803681B6AE0
:103EF00098470F2805D82348DB21234A244B00F09C
:103F000013FBE06803681B6A9847572804D81D48CC
:103F1000DC211D4A1F4BF2E7404649465246FFF757
:103F200059F9E0680021FFF771FC064610B1142131
:103F3000FFF7F4FDA068002103685B6A9847054617
:103F400008B1FCF723FA6068002103685B6A9847B0
:103F5000044610B12946FCF7E5F9CAF80060C9F833
:103F60000040C8F800500CB1231D00E023463B6020
:103F70002846A7602146EC633246FFF754F92046F5
:103F8000BDE8F087E423010837270108252401084C
:103F9000B32401085625010807B50346D0F82421AB
:103FA0000548009203F58471D3F82021034BFFF7F5
:103FB00089FF03B05DF804FBD0380020E038002012
:103FC0002DE9F047804690689A4689460368144672
:103FD000089F1B6A9847B0F58B6F04D22848DA21F6
:103FE000284A294B09E0606803681B6A98470F2834
:103FF00005D82348DB21234A244B00F095FAE068DA
:1040000003681B6A9847572804D81D48DC211D4ABD
:104010001F4BF2E7404649465246FFF7DBF8E0689F
:104020000021FFF7F3FB064610B11421FFF776FDE0
:10403000A068002103685B6A9847054608B1FCF751
:104040008BFB6068002103685B6A9847044610B1E7
:104050002946FCF74DFBCAF80060C9F80040C8F8D3
:1040600000500CB1231D00E023463B602846A760AA
:104070002146EC633246FFF7D6F82046BDE8F087CC
:10408000E4230108A622010825240108B32401081D
:104090005625010807B50346D0F8242105480092AB
:1040A00003F58471D3F82021034BFFF789FF03B098
:1040B0005DF804FBD0380020E03800207047000095
:1040C00030B5134D89B02C6814F001041DD1284679
:1040D00000F011FAC8B1012204230E49029403949E
:1040E000069407940C488DE80C000C4B06220493B0
:1040F0000B4B059343230AF0DBFD284600F0FCF947
:1041000005480849084A0DF0A3F8034809B030BD36
:10411000440900204C5001080009002018530108F0
:1041200020660108BD4000087C09002030B5144D10
:1041300089B02C6814F001041ED1284600F0DBF988
:10414000D0B1032204230F490294069407940E4829
:104150008DE80C0001231E2203930C4B04930C4B9F
:1041600005930C230AF0A4FD284600F0C5F9064883
:104170000849094A0DF06CF8034809B030BD00BF8A
:104180009C0800207C64010820090020247D01088F
:10419000EC520108BD4000087C09002030B5144DE8
:1041A00089B02B6813F001041ED1284600F0A3F952
:1041B000D0B1042008230F492A22069407948DE8E1
:1041C000090001230C48029303930C4B04930C4BFE
:1041D000059311230AF06CFD284600F08DF906487E
:1041E0000849094A0DF034F8034809B030BD00BF52
:1041F00098080020A0500108E0080020506601083F
:10420000D47C0108BD4000087C09002030B5134D66
:1042100089B02C6814F001041CD1284600F06BF919
:10422000C0B104230E492246009401930D4B029421
:1042300004930D4B039405932223069407940B4893
:104240000AF036FD284600F057F908480849094A9F
:104250000CF0FEFF054809B030BD00BF94080020F7
:10426000147D01081053010814530108C0080020F0
:10427000BD4000087C09002030B5134D89B02C6882
:1042800014F001041DD1284600F035F9C8B101220F
:1042900004230E4902940394069407940C488DE875
:1042A0000C000C4B032204930B4B05932E230AF0B6
:1042B000FFFC284600F020F905480849084A0CF0A0
:1042C000C7FF034809B030BD40090020246601083B
:1042D000A0080020EC78010848500108BD40000803
:1042E0007C09002010B504460CF0B8FF204610BD34
:1042F000704704290ED8DFE801F0030507090B0019
:10430000FFF74CBFFFF7DCBEFFF710BFFFF77EBF24
:10431000FFF7B2BF0020704710B504460CF09EFFB7
:10432000204610BD00487047708401084A2070473D
:10433000004870474809002010B5084CFFF72EFFD1
:104340002060FFF7BDFE6060FFF7F0FEA060FFF7A2
:104350005DFFE060FFF790FF206110BD480900207D
:1043600038B50A4B0A4A18800A4B1A60FFF7DAFF81
:104370000546FFF7DDFF0446FFF7D8FF064B1D603B
:10438000064B1C60064B188038BD00BF700900202A
:104390004883010864090020E8380020F438002030
:1043A000F0380020014A024B1A6070474883010828
:1043B0006409002000487047FC2A01081720704754
:1043C00008B50146034B186801B1012107F0BCFA9A
:1043D000012008BD6438002003220120002108B517
:1043E00001F03AF9074A106020B100210A460B4655
:1043F00001F068F901200022014601F02DF9024B7D
:10440000186008BD7409002078090020034B0021C2
:104410004FF0FF3218680B4601F0A4BA740900206F
:10442000034B002118680A460B4601F04BB900BF48
:1044300074090020034B002118680A460B4601F05E
:1044400091BA00BF7409002007B5002302A941F802
:10445000043D084B186801F03DFA019B3BB14FF059
:104460008052054B1A60BFF34F8FBFF36F8F03B0BD
:104470005DF804FB7409002004ED00E00B4B07B568
:10448000186880B1002302AA094942F8043D01F0EE
:10449000BDF9019B3BB14FF08052064B1A60BFF350
:1044A0004F8FBFF36F8F03B05DF804FB78090020D6
:1044B0001000002004ED00E070B50022074D084C0C
:1044C00013462868214601F04DFA286821464FF02E
:1044D000FF320023BDE8704001F044BA78090020A3
:1044E00010000020FEE7FEE70020014901F0A8BD12
:1044F000C1430008704770477047FEE710F00303A0
:10450000074918BFC3F104030A6818BFC01813187D
:10451000044883423ABF10460B604FF0FF307047AB
:1045200014000020783C0020FEE70000024B1868D1
:104530000368DB68184700BF643800201FB500F02F
:104540004DFE00F05BFD0323064940F2B6320093B6
:104550000023054801930293039301F0D3FB01F07C
:10456000F5FBFEE7C82C01082D45000840687047A0
:1045700041607047521A02EB5300B0FBF3F07047F2
:10458000024B1B68586A00EB40007047800900200E
:10459000704700000F4B13B51A6C0F4C42F001022C
:1045A00020461A644FF0FF321B6CE26003F00103F7
:1045B0000193019B4FF08043236000232361A3609C
:1045C00063600123636105F069FC204605F0F5FB9B
:1045D00002B010BD003802408009002010B504462A
:1045E0000CF03CFE204610BD10B5036804461B6964
:1045F00031B19847A26863689B1A1844606010BD87
:104600009847A06010BD704738B5044602F0B8FD69
:10461000054602F0C1FD81B2A8B203F02DF808B939
:104620000123237138BD10B504460CF017FE204657
:1046300010BD70B504798CB00E4615466CB101A85A
:1046400003F070F89DF8043033B1BDF810303360DA
:10465000BDF806302B6000E01C4620460CB070BD53
:1046600003681B6C184703685B6A1847104B0022ED
:1046700030B5C3F88420BFF34F8FD3F88020C2F346
:104680004E33C2F3C902590143F6E07008401146A7
:1046900040EA8175064C11F1FF31C4F87452F7D22B
:1046A00013F1FF33EFD2BFF34F8FBFF36F8F30BDE6
:1046B00000ED00E070470000034B044A13601A68E5
:1046C00042F400721A60704700B00240C009002036
:1046D000034B40F2EF101B78002B18BF00207047EF
:1046E000BC09002010B504460CF0B8FD204610BDF2
:1046F0002DE9F843444B0D46B1F80C801B68CF8977
:1047000098680E7E03681B6A984710282A7E6B699A
:104710001BD19BB24FF01F0E03F01F04D90AC3F345
:104720004513C4EB0424C1EB0121C3EB032394FB29
:10473000FEF444EA026291FBFEF442EA04443F22A2
:1047400093FBF2F344EA032201E043EA0262DFF85A
:10475000BC904FF0806CDFF8B8E0022300243F21CA
:10476000CEF888C022F07F4289F8393007EB08473D
:10477000D9F8003010281C60D9F8003099601C610D
:104780009C61DC615C625C63A968D9604FEA066188
:104790001C6141F4803141F00901D96108BF022157
:1047A0001A6218BF01215F64AA685A616A8AC8EB5D
:1047B00002029A614FF07F4292FAA2F2B2FA82F2BA
:1047C00096400E435E625A69DA639A691A645A6ABD
:1047D0005A63CEF808C0FFF749FFD9F800201368E4
:1047E00023F4403343F400331360D9F800201368F6
:1047F00043F40C531360D9F80020136843F001030D
:104800001360BDE8F88300BF64380020C0090020B1
:1048100000E100E02DE9F3470E6882460C46202EA9
:1048200007D0402E05D0321F57425741802E06D068
:1048300000E00127A6F580735E425E4100E001269C
:104840005D4B1B68986803681B6A9847236880461D
:10485000402B14D004D8042B0AD0202B0FD011E009
:10486000802B19D0B3F5807F0CD14FF0090915E0EA
:1048700010280CBF4FF002094FF001090EE04FF075
:1048800000090BE0B8F1100F4FF000050CBF4FF01E
:1048900002094FF0010903E04FF00A094FF4003517
:1048A000E3894FF08062AAF8A43ADFF818A1434BDD
:1048B0005046C3F8882003F0C9FDB8F1100FA28953
:1048C00050460CBF02230123CAF804505546CAF8CB
:1048D0000830638ACAF82C909B1ACAF80C30238AD5
:1048E000A2899B1ACAF82830354BCAF8003003F069
:1048F000DEFC0FB9002E3ED0237EFF2B17BF022314
:1049000000232B63237E0CBF2B636B631EB3B8F1B4
:10491000100F217E63691BD19BB24FF01F0E03F075
:104920001F02D80AC3F34513C2EB0222C0EB0020DA
:10493000C3EB032392FBFEF242EA016190FBFEF21D
:1049400041EA02423F2193FBF1F342EA032301E0F3
:1049500043EA01636B63638AB8F1100FA2894FF0D9
:1049600000011848A3EB0203AB610CBF0223012333
:10497000EB6103F0A1FD0121124803F09DFD0F4BF7
:104980004FF080629A60FFF771FEE189A38907B951
:1049900046B1A2680093019113466168094803F08B
:1049A000D4FC05E0009107486168A26803F0AEFC02
:1049B00002B0BDE8F08700BF6438002000E100E0ED
:1049C00000B00240C00900203C4B2DE9F0411B68BB
:1049D00006460C468AB0986803681B6A9847E389C4
:1049E00010280746A6F8A43A23680CBF4FF0020827
:1049F0004FF00108082B0CD103AD0FCC0FC594E884
:104A00000700336885E807005B6C304603A99847C8
:104A100051E02B4D4FF080622A4B2846C3F8882086
:104A200003F014FD4FF44033102FA2896B600CBFCC
:104A300002230123AB60638AC5F82C80A3EB020339
:104A4000EB604FF00003AB621F4B2B606369257E68
:104A50001AD19BB21F2003F01F02D90AC3F34513DA
:104A6000C2EB0222C1EB0121C3EB032392FBF0F264
:104A700042EA056591FBF0F245EA02423F2593FBCD
:104A8000F5F342EA032501E043EA05650C4803F02B
:104A90000EFC01210A4803F00FFD4FF08062094B24
:104AA0009A60FFF7E3FDE289A38929460092044852
:104AB000A26803F02BFC0AB0BDE8F0816438002046
:104AC000C009002000E100E000B0024010B504463B
:104AD000104B0C3060222146606041F8203B07F00B
:104AE0005DF804F13C0204F6BC2100231C3242F8BC
:104AF000243C8A42F9D194F8A72A2046C4F8A03A67
:104B000063F30002A4F8A43A84F8A63A84F8A72A2A
:104B100010BD00BF182D0108012380F8641080F833
:104B200065307047406803681B681847002070476D
:104B3000436B0BB10846184770470000104B00222A
:104B400030B5C3F88420BFF34F8FD3F88020C2F371
:104B50004E33C2F3C902590143F6E07008401146D2
:104B600040EA8175064C11F1FF31C4F87452F7D256
:104B700013F1FF33EFD2BFF34F8FBFF36F8F30BD11
:104B800000ED00E0014B986A704700BF8468014067
:104B9000024B0122996243F8602C704784680140FF
:104BA000064A536CD0689BB2C0F30A0001308342BE
:104BB00026BF181A80B20020704700BF006801406D
:104BC0000849094ACB680948C3F30A03013B9BB271
:104BD00013800A69C2F30A02013A02800B640123BE
:104BE0004B63704700680140020A0020000A002061
:104BF000704708B506F00EFBBDE80840FFF79EBF02
:104C000010B5044606F086FE23682046DB6FBDE83B
:104C10001040184706F0F8BA10B504460CF01EFB19
:104C2000204610BD30B590F8642090F830309A429C
:104C30000E4B1A780CD0C2B90D4A0E4914880E4892
:104C40000C800E4D018804801180012229800BE028
:104C50005AB10948074A0188084D1180044A14884E
:104C6000118000222C8004801A7030BD6938002029
:104C70006C380020723800206A380020703800201C
:104C800008B531B90A484FF441710A4A0A4BFFF797
:104C90004BFCC2630032816318BF012203640749E1
:104CA00000330A7018BF0123054A137008BD00BF06
:104CB000AE2D0108602D0108ED2D0108613800209E
:104CC00068380020F8B5561E9DF81850B6B21F2E51
:104CD00019D80124154FB440154E14F0803F08D167
:104CE00014F00B0F0FD03C88624334880732D21087
:104CF00003E03F88D20834887C43624381634BB130
:104D00001144C16307E00B484FF437710A4A0B4B5B
:104D1000FFF70AFCC36315B10A44026400E00564AE
:104D2000074A1370074B1D70F8BD00BF6C38002098
:104D30006A380020AE2D0108EC2E0108252E01084E
:104D40006138002068380020034B902283F85A23F2
:104D500083F85823704700BF00E100E0044B4FF098
:104D60008072C3F888204FF08062C3F888207047B3
:104D700000E100E0034B4FF080729A604FF08062D8
:104D80009A60704700E100E0154B10B59A6BD207AE
:104D900024D50122134CDA63134A196C128891420C
:104DA00012D1124A12881A64226892F856300133DE
:104DB00082F85630FFF762FB206806F0ABFD00205A
:104DC000BDE8104000F02CBB1A64002000F032FB5C
:104DD00020680368BDE810409B69184710BD00BFFC
:104DE0000068014064380020020A0020000A002008
:104DF000084B10B55A6892070BD502229A60FFF74C
:104E00009DFE054B1B6858680368BDE810405B6950
:104E1000184710BD00B002406438002070470120E0
:104E2000704758207047582303FB01000830704733
:104E3000582303FB010008307047012070474FF4EE
:104E4000136070474FF4136303FB01000830704791
:104E50004FF4136303FB01000830704701207047D3
:104E60001020704700EB01100830704700EB011074
:104E7000083070470846FEF7C5BB0000034B10B56D
:104E80000446036005F0E0FC204610BDB82F010881
:104E900010B50446FFF7F2FF20460CF0DFF920467C
:104EA00010BD0000034B10B50446036005F0CCFCB8
:104EB000204610BD802F010810B50446FFF7F2FF11
:104EC00020460CF0CBF9204610BD0000034B10B576
:104ED0000446036005F0B8FC204610BD482F0108C9
:104EE00010B50446FFF7F2FF20460CF0B7F9204654
:104EF00010BD0000084B10B50446036000F66410B6
:104F0000FFF7BCFF04F12C00FFF7CCFF04F1140005
:104F1000FFF7DCFF204610BDF02F010810B5044656
:104F2000FFF7E8FF20460CF099F9204610BD00007D
:104F30002DE9F0411F4D2B68DB0738D42846FFF7D9
:104F4000DAFA002833D01C4C1C4B04F6C41604F1CA
:104F5000140004F12C0804F664176060C4F808809B
:104F6000E7602661236005F071FC154B40466361E4
:104F700005F06CFC134B3846E36205F067FC124BFE
:104F800004F6EC212246C4F864393046FBF7E6FD0E
:104F900004F6EC20FBF7FFFB3046FEF733FB284618
:104FA000FFF7AAFA20460949094A0CF051F90248CC
:104FB000BDE8F08160150020040A0020F02F0108F0
:104FC000482F0108802F0108B82F0108F54E00086E
:104FD0007C09002010B504460CF040F9204610BDB5
:104FE00008B502F057FF044B1B781BB1BDE8084021
:104FF00001F056BB08BD00BF80150020F7B54C4E30
:105000004C4C356815F0010553D13046FFF773FA63
:1050100000284ED0484B4FF4F07225613046636053
:10502000464B6561A360464B2583E360012365839E
:1050300084F8453084F8463084F8543084F857308A
:10504000404BA583E58325846584A58484F8265098
:10505000A562A5856563A563E563256484F844506E
:1050600084F8555084F8565084F8585084F85950B4
:1050700084F85A5084F85B5084F85C50256684F8B4
:1050800065501C60304B31491A804FF4887384F8A6
:1050900030500B802E490D702E490A802E4A138005
:1050A0002E4B2360FFF728FA20462D492D4A0CF09D
:1050B000CFF82048002606F06FFAFFF77BF9054687
:1050C000FFF77CF90096014632462846334609F040
:1050D0009BFF254A254B304601251A60FFF740F912
:1050E000234809F0FBFEFFF723FF08F0B5FA01465D
:1050F000104806F095F91F4B4FF0404110221D70EB
:10510000236800950B48DF6E2B46B84784F858603B
:1051100084F846600223184E84F85430304684F8F0
:105120004550FFF737FA266184F85C5003B0F0BDB4
:105130005C150020F4140020881500208415002040
:1051400074150020643800206C3800206A38002074
:10515000693800207238002070380020502E010875
:10516000F14B00087C09002064150020EC38002079
:105170007C150020801500206815002010B5012343
:1051800092B0022406934FF4803306A80C94079340
:105190004FF4800310940D9319230E934FF4C873AA
:1051A0000F930823119303F083FF00B1FEE703F090
:1051B00047FF00B1FEE70F230390062101A80193EA
:1051C0004FF4A053029404934FF48053059304F0DA
:1051D00045F900B1FEE712B010BD00002DE9F04323
:1051E00000248FB002F044FEFFF7C8FF02F074FC09
:1051F00002F0BAFB5C2002F0BFFE02F0FFF902F001
:10520000A3F8019401F0BCFF0394029001F0C4FFE5
:105210004FF04043049007940A93FF238DF83440E5
:1052200006938DF835408DF8364001F0A9FF0B90BC
:1052300001F0B2FF022301A922460C9005934FF41E
:105240008063474808930523099303F0CDFE01F0DE
:10525000AFFF00F0D7F8434BC3F88440BFF34F8F44
:10526000D3F88020C2F34E33C2F3C902590143F68A
:10527000E0700840114640EA81743A4D11F1FF3167
:10528000C5F86042F7D213F1FF33EFD2BFF34F8F6F
:105290006B6943F480336B61BFF34F8FBFF36F8F44
:1052A000BFF34F8FBFF36F8F0024C5F850426B6977
:1052B00043F400336B61BFF34F8FBFF36F8F6B6AA3
:1052C0004FF00108284E032723F480334FF0104994
:1052D00001A86B62736823F0010373601B238DF8D0
:1052E00004808DF80C300223CDF808908DF805303D
:1052F0008DF80F708DF813408DF812408DF8114025
:105300008DF80E408DF80D408DF8104002F056FEDD
:10531000172301A88DF804808DF80C30CDF8089083
:105320008DF80F708DF813408DF812808DF81140B4
:105330008DF805708DF80E408DF80D408DF81040F9
:1053400002F03CFE052343F2D20273606B6A43F421
:1053500080336B624FF020431A600FB0BDE8F083DA
:105360005039002000ED00E090ED00E038B5164C1B
:10537000164B174D22461748174903600BF068FF7C
:105380002846FFF7A3FB2246284614490BF060FF8E
:10539000002513482246134B1349036005710BF097
:1053A00057FF12482246124B456012498560036040
:1053B0000BF04EFF104B2246104811490360BDE828
:1053C00038400BF045BF00BF7C090020F02A0108DF
:1053D000881500207C150020F1420008B546000821
:1053E00074150020002D01080746000868150020EC
:1053F000D82C010891450008C84F010884150020E9
:105400001D4E000808B5002001F04CFE034B0020A3
:105410001870BDE8084001F073BE00BF30200020C6
:10542000012804D1024B1870002001F05FBE7047C4
:1054300030200020012804D10020024B187001F018
:105440005FBE704730200020012802D1002001F00B
:1054500061BE704700F108034FF0FF324360C36044
:10546000036100238260036070470023036170477B
:1054700043684B609A688A609A68516099600861D5
:1054800003680133036070470A68531C30B501D1CB
:10549000036907E000F108035C682568954201D8BC
:1054A0002346F9E75A684A6091608B605960086149
:1054B00003680133036030BD42688168036991600D
:1054C0008268416851605A68824204BF82685A60AB
:1054D00000220261186801381860704738B5154617
:1054E000026C044632B9056845BB406800F044FFD1
:1054F000656024E06DB980680BF0EAFEA268236C59
:10550000134462689342A36018D323682846A360BB
:1055100015E0C0680BF0DCFE236CE2685B4221689A
:105520001A448A42E2603EBF62689B18E360022D23
:1055300004D1A36B13B1A36B013BA3630020A36B46
:105540000133A36338BD10B5026C034672B1C46861
:105550001444C4604068844228BF1868BDE8104005
:1055600028BFD8600846D9680BF0B2BE10BD10B590
:10557000044601F027F8A36C002B0CDD636A53B1DD
:1055800004F1240000F012FE08B100F0A9FEA36CA3
:10559000013BA364EFE74FF0FF33A36401F038F859
:1055A00001F010F8636C002B0CDD236953B104F19A
:1055B000100000F0FBFD08B100F092FE636C013BAF
:1055C0006364EFE74FF0FF336364BDE8104001F020
:1055D0001FB8000038B50D46044650B94FF4A0730B
:1055E00072B683F31188BFF36F8FBFF34F8F62B62C
:1055F000FEE700F0E7FF206CE36B22684343A26004
:10560000D1181B1A134461600021E3604FF0FF338F
:10561000A1636364A36485B92369B3B104F1100085
:1056200000F0C4FD012810D14FF08052094B1A60E0
:10563000BFF34F8FBFF36F8F07E004F11000FFF748
:1056400009FF04F12400FFF705FF00F0E1FF01204E
:1056500038BD00BF04ED00E0F8B50D46174606461C
:1056600050B94FF4A07372B683F31188BFF36F8FF4
:10567000BFF34F8F62B6FEE711B14843013000E03F
:105680000846543000F0C8FE044630B10DB9206021
:105690000EE000F1540303600AE04FF4A07372B609
:1056A00083F31188BFF36F8FBFF34F8F62B6FEE7AE
:1056B000E663204625640121FFF78CFF84F85070D3
:1056C0002046F8BD2DE9FF41884601921E4604465A
:1056D00050B94FF4A07372B683F31188BFF36F8F84
:1056E000BFF34F8F62B6FEE761B9036C53B14FF45D
:1056F000A07372B683F31188BFF36F8FBFF34F8F20
:1057000062B6FEE7022E02D1E36B012B6ED10027B9
:1057100000F058FFA26BE36B9A4201D3022E1AD11C
:10572000204641463246FFF7D9FE636A33B104F1A1
:10573000240000F03BFD012809D100E038B14FF012
:105740008052314B1A60BFF34F8FBFF36F8F00F061
:105750005FFF012055E0019D15B900F059FF43E0BE
:1057600017B902A800F066FD00F052FF00F024FB1C
:1057700000F028FF636C013301D100236364A36C44
:10578000013301D10023A36400F042FF02A801A964
:1057900000F068FD18BB00F015FFA76BE56B00F08B
:1057A00037FFAF4215D104F11000019900F0C4FC9D
:1057B0002046FFF7DCFE00F093FB08B10127A7E7C6
:1057C0004FF08052104B1A60BFF34F8FBFF36F8FB3
:1057D000F4E72046FFF7CBFE00F082FBEEE7204621
:1057E000FFF7C5FE00F07CFB00200AE04FF4A07339
:1057F00072B683F31188BFF36F8FBFF34F8F62B61A
:10580000FEE704B0BDE8F08104ED00E02DE9F041D1
:105810000E4690461D46044650B94FF4A07372B62A
:1058200083F31188BFF36F8FBFF34F8F62B6FEE72C
:1058300061B9036C53B14FF4A07372B683F311884E
:10584000BFF36F8FBFF34F8F62B6FEE7022D0DD10E
:10585000E36B012B0AD04FF4A07372B683F3118867
:10586000BFF36F8FBFF34F8F62B6FEE700F094FF78
:10587000EFF311874FF4A07372B683F31188BFF36F
:105880006F8FBFF34F8F62B6A26BE36B9A4201D367
:10589000022D1AD1204631462A46FFF71FFEA36C7F
:1058A00001330DD1636A73B104F1240000F07EFC72
:1058B00048B1B8F1000F06D00120C8F8000005E09B
:1058C000A36C0133A364012000E0002087F311885A
:1058D000BDE8F081F8B50E46044650B94FF4A07308
:1058E00072B683F31188BFF36F8FBFF34F8F62B629
:1058F000FEE7056C55B14FF4A07372B683F31188BF
:10590000BFF36F8FBFF34F8F62B6FEE700F044FF27
:10591000EFF311874FF4A07372B683F31188BFF3CE
:105920006F8FBFF34F8F62B6A26BE36B9A4215D2B3
:10593000A36B0133A363A36C01330AD1636A5BB128
:1059400004F1240000F032FC30B12EB101203060AF
:1059500005E0A36C0133A364012000E0284687F32F
:105960001188F8BD2DE9FF410E4601929846044684
:1059700050B94FF4A07372B683F31188BFF36F8FE1
:10598000BFF34F8F62B6FEE729B9036C002B40F0DE
:105990008A800F463AE0002738E017B902A800F0E5
:1059A00049FC00F035FE00F007FA00F00BFE636CD6
:1059B000013301D100236364A36C013301D10023BF
:1059C000A36400F025FE02A801A900F04BFC00280A
:1059D00062D100F0F7FDA56B00F01AFE002D55D145
:1059E000236833B900F0EEFD606800F07FFC00F042
:1059F0000FFE04F12400019900F09EFB2046FFF702
:105A0000B6FD00F06DFA002837D0012700F0DAFD6E
:105A1000A36B63B320463146E568FFF794FDB8F108
:105A2000000F10D1A36B013BA363236813B900F0EF
:105A3000E7FC60602369B3B104F1100000F0B6FB2D
:105A4000012810D107E0636AE56063B104F1240026
:105A500000F0ACFB38B14FF080521A4B1A60BFF324
:105A60004F8FBFF36F8F00F0D3FD012026E0019D23
:105A7000002D92D100F0CCFD13E04FF08052114B7D
:105A80001A60BFF34F8FBFF36F8FBEE72046FFF75B
:105A90006EFD00F025FAB8E72046FFF768FD00F03C
:105AA0001FFA00200AE04FF4A07372B683F3118846
:105AB000BFF36F8FBFF34F8F62B6FEE704B0BDE850
:105AC000F08100BF04ED00E0064A13681968064B38
:105AD00011B94FF0FF3203E01268D268D268526801
