:020000040800F2
:10000000D03A0020750300087D0300087F03000834
:100010008103000883030008850300080000000036
:10002000000000000000000000000000B90200080D
:1000300089030008000000000D030008E9530008D0
:100040008F0300088F0300088F0300088F03000848
:100050008F0300088F0300088F0300088F03000838
:100060008F0300088F0300088F0300088F03000828
:100070008F0300088F0300088F0300088F03000818
:100080008F0300088F0300088F0300088F03000808
:100090008F0300088F0300088F0300088F030008F8
:1000A0008F0300088F0300088F0300088F030008E8
:1000B0008F0300088F0300088F0300088F030008D8
:1000C0008F0300088F0300088F0300088F030008C8
:1000D0008F0300088F0300088F0300088F030008B8
:1000E0008F0300088F0300088F0300088F030008A8
:1000F0008F0300088F0300088F0300088F03000898
:100100008F0300088F0300088F0300088F03000887
:100110008F0300088F0300088F0300088F03000877
:100120008F0300088F0300088F0300088F03000867
:100130008F0300088F0300088F0300088F03000857
:100140008F0300088F0300088F0300088F03000847
:100150008F0300088F0300088F0300088F03000837
:100160008F0300088F0300088F0300088F03000827
:100170008F0300088F0300088F03000800000000B1
:100180008F0300088F0300088F0300088F03000807
:100190008F0300088F0300088F0300088F030008F7
:1001A000FD4900088F030008F91500088F030008B7
:1001B0008F0300088F0300088F0300088F030008D7
:1001C0008F0300088F03000800F002F800F065F8C4
:1001D0000AA090E8000C82448344AAF10107DA45A2
:1001E00001D100F05AF8AFF2090EBAE80F0013F08F
:1001F000010F18BFFB1A43F001031847C451020056
:10020000E45102000A444FF0000C10F8013B13F0D7
:10021000070408BF10F8014B1D1108BF10F8015B5F
:10022000641E05D010F8016B641E01F8016BF9D152
:1002300013F0080F1EBF10F8014BAD1C0C1B09D1A9
:100240006D1E58BF01F801CBFAD505E014F8016B1B
:1002500001F8016B6D1EF9D59142D6D370470000AD
:100260000023002400250026103A28BF78C1FBD8BF
:10027000520728BF30C148BF0B6070471FB516F04A
:1002800065FD9DE8030000F0C3FA00F0CBF91FBD47
:1002900010B5002000F038FA10BD00F025FB114623
:1002A000FFF7ECFF13F002FB00F05DFB03B4FFF778
:1002B000EFFF03BC00F0C8F92B4B19680868B0E8E1
:1002C000F04F80F30988BFF36F8F4FF0000080F389
:1002D000118870470000000006480068006880F33D
:1002E000088862B661B6BFF34F8FBFF36F8F00DF30
:1002F00000BF00BF08ED00E0DFF80C00016841F42A
:1003000070010160704700BF88ED00E0EFF30980E5
:10031000BFF36F8F144B1A681EF0100F08BF20ED4B
:10032000108A20E9F04F106008B44FF4A07072B644
:1003300080F31188BFF34F8FBFF36F8F62B613F056
:100340008FFF4FF0000080F3118808BC196808681F
:10035000B0E8F04F1EF0100F08BFB0EC108A80F329
:100360000988BFF36F8F7047C0000020EFF305804E
:10037000704700000948804709480047FEE7FEE74C
:10038000FEE7FEE7FEE7FEE7FEE7FEE7FEE7FEE745
:1003900004480549054A064B70470000C15400084F
:1003A000C9010008D0340020D03A0020D036002007
:1003B000D036002010B5002000F0C7F9FFF768FF25
:1003C000BDE81040012000F03FB92DE9F04107469B
:1003D00015460E46102000F041F904000AD067606F
:1003E000C4E9026500F036F901682160046000206C
:1003F000BDE8F0810120FBE70EB5054614460E4628
:1004000013A000F0B0F9284600F0ADF916A000F0F6
:10041000AAF9304600F0A7F915A000F0A4F90021D0
:100420008DF80B100A210DF10A008DF80A1008E072
:1004300094FBF1F201FB124294FBF1F4303200F82C
:10044000012D002CF4DC00F08EF9FFF7B3FF000063
:100450002A2A2A20617373657274696F6E2066613F
:10046000696C65643A2000002C2066696C65200088
:100470002C206C696E65200040EA010310B59B07D3
:100480000FD1042A0DD310C808C9121F9C42F8D0FE
:1004900020BA19BA884201D9012010BD4FF0FF30AF
:1004A00010BD1AB1D30703D0521C07E0002010BDC5
:1004B00010F8013B11F8014B1B1B07D110F8013B51
:1004C00011F8014B1B1B01D1921EF1D1184610BD32
:1004D000032A40F2308010F0030C00F0158011F870
:1004E000013BBCF1020F624498BF11F801CB00F848
:1004F000013B38BF11F8013BA2F1040298BF00F89C
:1005000001CB38BF00F8013B11F0030300F0258058
:10051000083AC0F0088051F8043B083A51F804CB7F
:10052000A0E80810F5E7121D5CBF51F8043B40F845
:10053000043BAFF30080D20724BF11F8013B11F850
:1005400001CB48BF11F8012B24BF00F8013B00F894
:1005500001CB48BF00F8012B704710B5203AC0F01E
:100560000B80B1E81850203AA0E81850B1E81850B4
:10057000A0E81850BFF4F5AF5FEA027C24BFB1E8F1
:100580001850A0E8185044BF18C918C0BDE8104062
:100590005FEA827C24BF51F8043B40F8043B08BF6B
:1005A0007047D20728BF31F8023B48BF11F8012B32
:1005B00028BF20F8023B48BF00F8012B704702F02B
:1005C000FF0343EA032242EA024200F0D8B84FF0A8
:1005D000000200B5134694469646203922BFA0E893
:1005E0000C50A0E80C50B1F12001BFF4F7AF09079F
:1005F00028BFA0E80C5048BF0CC05DF804EB890090
:1006000028BF40F8042B08BF704748BF20F8022BD2
:1006100011F0804F18BF00F8012B704770477047EA
:100620007047000070B5064C7C44064D7D4403E0E5
:10063000206820448047241DAC42F9D170BD0000E1
:10064000205302003053020001491820ABBEFEE7E0
:100650002600020000487047F428002070B50646C6
:1006600000F0BAF8056806F10B0020F00704B44268
:100670009CBF002070BD2B466A68BAB11068A042CA
:1006800010D304F1080188423CBF5068586007D37A
:100690005168101941601168091B016058601460AD
:1006A000101D70BD13465268002AE7D12146284626
:1006B00000F09AF80028DED170BD70B50446051F21
:1006C00000F08AF80068002C14BF446870BD002C4C
:1006D00018BFAC423CBF20466468F8D301680A18D2
:1006E000AA4218BF456003D12A680546114401603B
:1006F00028684119A1421CBF6C6070BD61686960C7
:1007000021680844286070BD2DE9F0410646FFF7D6
:10071000A1FF8046454613E016B1E068B0420ED115
:1007200020682860D4E90101D8F800708847204685
:10073000FFF7C3FFD8F80000B842EBD100E0254630
:100740002C68002CE8D1BDE8F08110B500F09CF8D1
:10075000BDE8104000F092B810B500F0ADF8BDE86B
:10076000104000F08BB810B5044602E0641C00F0A5
:1007700026F820780028F9D110BD4FF00002042996
:10078000C0F0128010F0030C3FF423AFCCF1040C46
:10079000BCF1020F18BF00F8012BA8BF20F8022BF4
:1007A000A1EB0C01FFF715BF5FEAC17C24BF00F885
:1007B000012B00F8012B48BF00F8012B704708B54A
:1007C00069468DF800000320ABBE08BD00487047A5
:1007D000BC2800207047000000487047C428002053
:1007E000704770477047704738B504460A46002086
:1007F0006946AFF30080002808BF38BD0246009963
:10080000204600F096F8012038BD012000F0CDB858
:10081000F8B5AFF30080054600200C46102000BF5D
:100820000646A819A0420DD9324669460020AFF30A
:100830000080070008BF00F0B8F80098A04218BF79
:100840000546C419FFF7C8FF05600746F01D20F0F4
:1008500007004619284600F00AF8B44208BFF8BD60
:10086000A21B31463868BDE8F84000F062B80021AC
:100870000160C0E90110704710207047002801D0C6
:10088000FFF7E2BE7047000010B5002102A000F0A3
:1008900073F8012010BD0000534947414252543AB9
:1008A0002041626E6F726D616C207465726D696E4D
:1008B0006174696F6E00000010B5002102A000F0A5
:1008C0005BF8012010BD00005349475056464E3A90
:1008D0002050757265207669727475616C20666E41
:1008E0002063616C6C6564007546FFF76FFFAE4670
:1008F00005006946534620F00700854618B020B52C
:10090000FFF746FDBDE820404FF000064FF000071E
:100910004FF000084FF0000B21F00701AC46ACE8A7
:10092000C009ACE8C009ACE8C009ACE8C0098D4614
:100930007047034640688C46002818BF88423CBF79
:1009400003464068F8D318681844884207D00CF171
:10095000030020F00700001D411A521A0146081D2D
:100960000A60FFF7AABE10B50446AFF30080204628
:10097000BDE81040FFF79ABC70B505460C460A204A
:1009800000E06D1CFFF71BFF35B128780028F8D177
:1009900002E0641CFFF713FF14B120780028F8D19F
:1009A000BDE870400A20FFF70ABF10B500F004F858
:1009B000BDE81040FFF762BF10B5012805D0002147
:1009C00003A0FFF7D9FF012010BD09A1F8E700003F
:1009D00053494752544D454D3A204F7574206F6628
:1009E0002068656170206D656D6F72790000000090
:1009F0003A2048656170206D656D6F727920636F74
:100A0000727275707465640070B504460D460820F6
:100A100007490860C020486105210548C1614FF4BD
:100A200080300349C862084602F094FA70BD0000A5
:100A3000FC0F002010B509480068806940F00100F3
:100A400006490968886101221103054801F088FB05
:100A500001220821034801F083FB10BD040F002090
:100A600000200240002802400548006800EB800199
:100A700001EBC001034800EB8100806A7047000071
:100A8000AC0000203C0F00200548006800EB80010E
:100A900001EBC001034800EB8100C06A7047000011
:100AA000AC0000203C0F002010B5282124484161F3
:100AB000092181613521C1610B21016240F21B11C5
:100AC000816240F21521416240F21D11016340F242
:100AD0003521C1620021FFF797FF4FF4F0711848EC
:100AE00001664FF488714166002180F8341080F867
:100AF000351080F836100020114948600021104858
:100B00008160C16001610F480D490860084601F02D
:100B1000CEFD18B900210A4800F01AF8084801F083
:100B2000CBFD01221103084801F01AFB0122082124
:100B3000064801F015FB00F069FA002010BD000026
:100B4000040F0020006801400020024000280240FD
:100B500030B587B004460D4600BF6248006840F0DB
:100B60008060604908600846006800F0806001907D
:100B700000BF00BF00BF5B481438006840F40000AD
:100B80005849143908600846006800F400000190D4
:100B900000BF00BF00BF0846006840F010000860BA
:100BA0000846006800F01000019000BF00BF00BFC1
:100BB0000846006840F0400008600846006800F001
:100BC0004000019000BF00BF00BF0846006840F42D
:100BD000807008600846006800F48070019000BFD3
:100BE00000BF00BF0846006840F400700860084677
:100BF000006800F40070019000BF00BF00BF08460D
:100C0000006840F4806008600846006800F4806076
:100C1000019000BF00BF00BF0846006840F480702C
:100C200008600846006800F48070019000BF00BFB3
:100C300000BF0846006840F480600860084600680D
:100C400000F48060019000BF00BF102002900220DD
:100C5000039000200490022005900E20069002A927
:100C6000214801F065F94FF4805002900220039072
:100C70000920069002A91D4801F05AF94FF4674077
:100C80000290022003900E20069002A9184801F05D
:100C90004FF94EF6FF700290022003900E2006904E
:100CA00002A9144801F044F9F720029002200390B1
:100CB0000E20069002A9104801F03AF94FF4805036
:100CC00002900120039002A9094801F031F908209F
:100CD00002900120039002A9074801F029F907B00A
:100CE00030BD0000443802400010024000180240AD
:100CF00000200240002402400028024030B587B0A6
:100D000004461CBB124D00BF1248006840F48070BE
:100D1000104908600846006800F48070019000BF28
:100D200000BF0D4850F82400029001200390049069
:100D30000320059002A9284601F0FAF8064830F889
:100D4000240081B20022284601F00AFA07B030BD23
:100D500000200240303802409C6F010870B5044604
:100D600044B9054D054830F8240081B200222846D8
:100D700001F0F6F970BD0000002002409C6F0108F0
:100D800070B5044644B9054D054830F8240081B2D9
:100D90000122284601F0E4F970BD00000020024065
:100DA0009C6F010870B504463CB9044D044830F806
:100DB000240081B2284601F0CFF970BD0020024026
:100DC0009C6F010800B591B04FF480700990EB2042
:100DD00003904FF440600A904FF4005006900020BA
:100DE0000B904FF040700C900A20089000200E905D
:100DF0000F9010900290019001AA03A9044801F0FD
:100E00006BFF10B1012011B000BD0020FBE7000016
:100E1000C811002010B51C481C490860084601F0A4
:100E2000CBFE08B1012010BD0021184800F030F8B9
:100E30000120164948600421144881601021C160D6
:100E4000080590FAA0F0B0FA80F0401E0F49086142
:100E50004FF480710D48416100218161C1610162DF
:100E600001F0CEFE08B10120DDE7084804F0FAF9F0
:100E700008B10420D7E7054804F0A1F908B104201F
:100E8000D1E70020CFE70000001000A0C81100202B
:100E900030B587B004460D4600BF5848006840F0A2
:100EA0000200564908600846006800F00200019000
:100EB00000BF00BF51482038006840F002004F4991
:100EC000203908600846006820F00200086000BF72
:100ED0004A480838006840F002004849083908606C
:100EE0000846006800F00200019000BF00BF00BF8C
:100EF0000846006840F0020008600846006800F0FC
:100F00000200019000BF00BF00BF0846006840F02B
:100F1000080008600846006800F00800019000BF63
:100F200000BF00BF0846006840F00800086008469F
:100F3000006800F00800019000BF00BF00BF084635
:100F4000006840F0100008600846006800F01000DB
:100F5000019000BF00BF00BF0846006840F00800D5
:100F600008600846006800F00800019000BF00BF5C
:100F7000402002900220039001200490032005905D
:100F80000A20069002A91E4800F0D2FF0420029019
:100F9000002004900920069002A9194800F0C8FF1B
:100FA0004FF4006002900920069002A9154800F055
:100FB000BFFF4FF4805002900920069002A911480B
:100FC00000F0B6FF042002900920069002A90E4806
:100FD00000F0AEFF4FF4005002900920069002A9E5
:100FE000084800F0A5FF00220F215C2001F045FC1D
:100FF0005C2001F035FC07B030BD000038380240FD
:1010000000040240000C02400010024010B51E48CF
:101010001E49086002201E4908600720486004201D
:1010200088600720C860022008614861886100204C
:10103000164948600021154881600421C1601021D3
:10104000016140214161890081610021C1614FF44A
:1010500000610162490041620021816200F068F88C
:101060000B490A4803F097F918B1012009490870A3
:1010700002E000200749087040F2036000F00CF81D
:101080000448007810BD0000400100A0801000203E
:10109000B4100020B000002038B5044600200090B5
:1010A000012021490860102048600120886000204C
:1010B000C8604FF6FF721D4803F0A2F9012000F04E
:1010C00029FF02201849086010204860012088602C
:1010D0000020C8604FF6FF72144803F091F9032016
:1010E0001149086010204860082088600020C8600E
:1010F0004FF6FF720D4803F083F94FF4087000902B
:101100000420094908601020486001208860009888
:10111000C8604FF6FF72054803F072F92146034894
:1011200003F05AF938BD0000D010002080100020D4
:1011300030B587B004460D4600BF6648006840F0F1
:101140000100644908600846006800F00100019051
:1011500000BF00BF00BF5F480838006840F480004F
:101160005C49083908600846006800F48000019076
:1011700000BF00BF00BF0846006840F004000860E0
:101180000846006800F00400019000BF00BF00BFE7
:101190000846006840F0080008600846006800F053
:1011A0000800019000BF00BF00BF0846006840F083
:1011B000100008600846006800F01000019000BFB1
:1011C00000BF00BF0846006840F0200008600846E5
:1011D000006800F02000019000BF00BF00BF08467B
:1011E000006840F0400008600846006800F04000D9
:1011F000019000BF00BF00BF0846006840F08000BB
:1012000008600846006800F08000019000BF00BF41
:101210000220039001200490022005900C200690EB
:101220000820029002A92C4800F082FE4CF20370C4
:10123000029002A9294800F07BFE4FF683700290CD
:1012400002A9274800F074FE4FF63F00029002A961
:10125000244800F06DFE48F23310029002A92248A3
:1012600000F066FE2820029002A9204800F060FEEF
:1012700000201F49486080211D4881608900C160AD
:101280004900016189004161890081610021C161DA
:101290004FF400310162002141620321816200218B
:1012A000C162016313481249086000BF0846206309
:1012B000846300BF00F088FD0D4800F0B7FD0022F8
:1012C0000F21382001F0D9FA382001F0C9FA07B00F
:1012D00030BD00003838024000080240000C0240D7
:1012E000001002400014024000180240001C02409E
:1012F000E0100020106402402DE9F04190B0054656
:101300004FF0000800200390029001907E48006892
:1013100001697E480078884728702878002870D0B6
:101320000024E4E004A800EB440207A800EB440119
:101330007548006843697548007898477448007894
:1013400001280BD107A830F814000DA921F81400CA
:1013500004A830F814000AA921F814006C48007899
:1013600000F0020038B107A830F81400C0F5805032
:101370000DA921F814006648007800F0040038B187
:1013800004A830F81400C0F580500AA921F8140010
:101390005F48007800F0080058B107A830F8140042
:1013A0000AA921F8140004A830F814000DA921F8A6
:1013B00014000DA830F81400564951F82410884242
:1013C00007D90DA830F81400524951F82410401ADA
:1013D00006E0504850F824000DA931F81410401AC6
:1013E00086B20AA830F814004B4951F824108842FC
:1013F00008D90AA830F81400474951F82410401AB7
:1014000007E07CE0444850F824000AA931F81410A1
:10141000401A87B2F01905280BDD0DA830F814002A
:101420003C4941F824000AA830F814003A4941F830
:1014300024003648007870280DD10DA830F814101B
:10144000A81C20F814100AA830F8141005F10C009C
:1014500020F8141016E02F4850F824002F4909886E
:101460004843C0F30F31A81C20F814102A4850F844
:1014700024002B4909884843C0F30F3105F10C00C3
:1014800020F8141001A802AB03AA214600901F48BF
:10149000007812F0C7F80398C1B205F116000155A3
:1014A0000298C1B205F120000155019830B1012820
:1014B00009D002280CD0032814D10EE0012105F137
:1014C0001B00015511E0022105F11B0001550CE044
:1014D000032105F11B00015507E0002105F11B0068
:1014E000015502E04FF0010800BF00BF641C2878DE
:1014F000A0423FF617AF284600F014F88046404659
:1015000010B0BDE8F0810000B4000020BD00002054
:10151000BC000020A0110020B4110020B800002061
:10152000BA00002038B50446002000900025694626
:101530001748007812F068F80098182816D005DCD3
:1015400058B110280CD014281CD10CE01C2810D045
:10155000402811D0492815D111E00020A06213E0E5
:101560000120A06210E00220A0620DE00320A06232
:101570000AE00420A06207E00520A06204E0062043
:10158000A06201E0012500BF00BF284638BD000071
:10159000BD00002070B504460D46002610480480AA
:1015A0001048058010480168702088470E4841683F
:1015B0007020884751280FD10B480C4908607020D3
:1015C0000B49087008200B49087008480068C1687A
:1015D00007480078884700E00326304670BD0000C9
:1015E000B8000020BA00002028010020B40000202C
:1015F000BD000020BC00002010B50A48406800F083
:10160000020070B102200749886004F085FB00BF2A
:101610000548046800BF606802685169884700BFD8
:1016200000BF10BD00B00240B80100202DE9F04716
:101630000C4616461F46DDF820C04FF00008002576
:10164000002100220023D0F80090D9F8449009F03E
:10165000404ADFF8DC9099FAA9F9B9FA89F907FA52
:1016600009F949EA0C094AEA090AD0F80090C9F8D0
:1016700044A0D0F80090C9F83C60D0F80490B9F5C7
:10168000403F4ED104F07F4504F47F0104F47F42D3
:10169000E3B2D0F80890B9F1000F06D142EA01098F
:1016A00049EA050949EA030836E0D0F80890B9F19B
:1016B000010F04D142EA010949EA03082CE0D0F8FD
:1016C0000890B9F1020F09D1C90C920ADB084FEA60
:1016D000421949EAC12949EA03081DE0D0F80890F7
:1016E000B9F1030F0CD1ED0FC90CD20ADB084FEA98
:1016F000421949EA812949EAC53949EA03080BE058
:101700002D0F090D120B1B094FEA021949EA012995
:1017100049EA053949EA0308D0F80090C9F8388049
:1017200003E0D0F80090C9F80C40BDE8F087000055
:101730000000FF3F0146087810381823B0FBF3F291
:101740000848805CC865032A05D908686FF309005A
:10175000001D886503E008686FF309008865886DDF
:1017600070470000C86F0108014600208A6A8B6933
:1017700003BB32B1012A0CD0022A10D0032A17D1A0
:1017800015E0CB6A03F08073B3F1807F00D10120B4
:101790000FE0CB6AB3F1C07F00D1012009E0CB6A32
:1017A00003F08073B3F1807F00D1012001E000E0FD
:1017B00000BF35E08B69B3F5005F1BD132B1012A60
:1017C00006D0022A0CD0032A12D10BE0012010E02F
:1017D000CB6A03F08073B3F1807F00D1012008E071
:1017E000012006E0CB6AB3F1C07F00D1012000E008
:1017F00000BF15E032B1012A05D0022A04D0032A25
:101800000CD103E000BF00BF012008E0CB6A03F069
:101810008073B3F1807F00D1012000E000BF00BFE2
:10182000704730B50246002300240868012816D00E
:1018300013686FF30E03D1E901052843CD682843EF
:101840000D6928434D6928438D692843CD69284394
:101850000D6A28434D6A28430343136019E0136857
:1018600023F4F843D1E9070528434D6A284303438D
:1018700054686FF30E04D1E901052843CD6828436D
:101880000D6928434D6928438D692843044313603B
:101890005460002030BD0246506940EA410050616A
:1018A00000207047F8B506460C461546002000900B
:1018B0000027D4E900010843A168491E40EA41100D
:1018C000E16840EA412000900098306100F04EFC51
:1018D000074609E0681C38B125B100F047FCC01B81
:1018E000A84201D90320F8BDB06900F0200000280B
:1018F000F0D100BFF7E7000070B50346154600229F
:101900000024012D1FD09A6802F070420868401E22
:101910004E68761E40EA06168868401E46EA002693
:10192000C868401E46EA0036088A401E46EA00465D
:10193000888A401E46EA0056087E401E46EA00603D
:1019400002439A6022E09A6811480240C868401E2B
:101950000603888A401E46EA00500243DC6804F011
:1019600070440868401E4E68761E40EA0616886875
:10197000401E46EA0026088A401E46EA0046087EC7
:10198000401E46EA006004439A60DC60002070BD9F
:10199000FF0F0FFF70B5044600252068006820F097
:1019A0000500001D2168086000F0E0FB054613E01B
:1019B00000F0DCFB401BB0F57A7F0DD9E06B40F006
:1019C0002000E063032084F8390000BF002084F881
:1019D000380000BF032070BD2068006800F00100DF
:1019E0000028E5D12068006820F40C5021680860C8
:1019F000012084F8390000BF002084F8380000BFBF
:101A000000BFE8E72DE9F84304460F4615461E4699
:101A1000DDE9088900BF94F83800012802D10220CE
:101A2000BDE8F883012084F8380000BF022084F864
:101A30003900206845614346324639462046CDF894
:101A40000090FFF7F3FD2068006840F40C50216817
:101A500008602068006840F00100216808600020EC
:101A6000DEE72DE9F04104460D460026206800F12E
:101A700024072068006840F0040021680860012DF8
:101A800002D1206800F11C0700F070FB064614E04C
:101A900000F06CFB801BB0F57A7F0ED9E06B40F054
:101AA0002000E063032084F8390000BF002084F8A0
:101AB000380000BF0320BDE8F081386800F0200046
:101AC0000028E5D12068006820F46450216808608F
:101AD000012084F8390000BF002084F8380000BFDE
:101AE00000BFE8E7F0B502460C4602F1180000EB33
:101AF0000411002500235068B0F5403F02D0506823
:101B000000B100BF00BF92F83800012801D10220C7
:101B1000F0BD012082F8380000BF022082F83900B1
:101B20004FF4403797FAA7F7B7FA87F7D1E90106DC
:101B3000BE4040EA0603244D48680A2802D048689F
:101B4000092804D1C86800F07F40034308E04FF043
:101B50007F4696FAA6F6B6FA86F6C868B040034302
:101B6000A4B91068406AA8431843166870620868F0
:101B70001668B06148680A2802D04868092819D157
:101B8000C86820F07F401668B06213E01068C06932
:101B9000A84318431668F061086816683061486801
:101BA0000A2802D04868092804D1C86820F07F407C
:101BB00016683062012082F8390000BF002082F8E8
:101BC000380000BF00BFA3E70F0003FF10B50446B5
:101BD0000CB9012010BD2148006800F4000020B3BA
:101BE0002068006800F0010028B12046FFF7D2FE0F
:101BF000D8B10120EEE72068406A00F020002028DC
:101C000006D100212046FFF72CFF70B10120E1E74B
:101C10002068C06900F02000202806D1012120465C
:101C2000FFF71FFF08B10120D4E7204600F048F875
:101C300000202168086021680861216888612168A6
:101C4000C8612168486221684863E06384F839000C
:101C500000BF84F8380000BF00BFBBE73038024047
:101C600010B504460CB9012010BD94F8390028B90C
:101C7000002084F83800204600F023F8022084F881
:101C800039002068006820F440306168084321680A
:101C900008602068406B20F00700A16808432168B5
:101CA00048632068006C6FF30D00E1680843216809
:101CB00008640020E063012084F839000020D3E7A5
:101CC000704770472DE9F84304460D4616461F46F7
:101CD000DDF8208000BF94F83800012802D10220EE
:101CE000BDE8F883012084F8380000BF022084F8A2
:101CF00039003B46324629462046CDF80080FFF7A2
:101D000095FC2068006840F40C5021680860206849
:101D1000006840F00100216808600020E0E770B52D
:101D20000446A56D00F022FA064694F83500022814
:101D300008D08020606500BF002084F8340000BF18
:101D4000012070BD2068006820F01600216808603E
:101D50002068406920F0800021684861206C08B943
:101D6000A06C28B12068006820F008002168086095
:101D70002068006820F00100216808600FE000F092
:101D8000F5F9801B05280AD92020606500BF0020D6
:101D900084F8340000BF032084F83500D1E72068C0
:101DA000006800F001000028E9D194F85C103F20A1
:101DB0008840A86000BF002084F8340000BF0120E4
:101DC00084F835000020BCE770B504460CB901204A
:101DD00070BD94F83500022800D1F9E7206800684A
:101DE00020F0010021680860002021680860216857
:101DF0004860216888602168C860216808612120E6
:101E0000216848612046FFF795FC054694F85C1070
:101E10003F208840A8600020606584F8350000BF3E
:101E200084F8340000BF00BFD2E700002DE9F04184
:101E30000446002500F09AF9074614B90120BDE8D0
:101E4000F081606A00B100BF00BF002084F8340058
:101E500000BF022084F835002068006820F00100EF
:101E6000216808600AE000F081F9C01B052805D947
:101E700020206065032084F83500E0E720680068D2
:101E800000F001000028EED12068056820480540D8
:101E9000D4E901010843E168084321690843616905
:101EA0000843A1690843E1690843216A08430543DF
:101EB000606A042803D1D4E90B0108430543206874
:101EC00005602068456925F00705606A0543606A7A
:101ED00004280BD1A06A05432046FFF745FC28B132
:101EE00040206065012084F83500A8E7206845613E
:101EF0002046FFF71FFC064694F85C103F20884000
:101F0000B06000206065012084F83500002096E76D
:101F10003F8010F031B5002400F028F9044600BFDE
:101F200000F024F9001B00998842F9D338BD000065
:101F3000F8B502460B46002100250024002000BF12
:101F4000E4E0012606FA01F51E6806EA0504AC4243
:101F500071D15E68022E02D05E68122E13D1CF08B6
:101F600002F1200656F827004E07F70E0F26BE4056
:101F7000B0434F07FF0E1E69BE403043CF0802F149
:101F8000200646F8270010684F000326BE40B043E5
:101F90001E7906F003064F00BE40304310605E68B5
:101FA000012E08D05E68022E05D05E68112E02D088
:101FB0005E68122E13D190684F000326BE40B043D6
:101FC0004F00DE68BE4030439060506801268E406E
:101FD000B0431E79C6F300168E4030435060D0687F
:101FE0004F000326BE40B0434F009E68BE403043C2
:101FF000D0605E6806F08056B6F1805FA8D100BF61
:10200000444E366846F48046424F3E603E4636684F
:1020100006F48046009600BF00BF3F4E8F0856F87A
:1020200027008E07370F0F26BE40B0433B4EB2420B
:1020300002D100262EE068E0394EB24201D10126DD
:1020400028E0384EB24201D1022623E0364EB24299
:1020500001D103261EE0354EB24201D1042619E01B
:10206000334EB24201D1052614E0324EB24201D1C4
:1020700006260FE0304EB24201D107260AE02F4E6D
:10208000B24201D1082605E02D4EB24201D1092607
:1020900000E00A268F073F0FBE4030431E4E8F08D8
:1020A00046F82700274E3068A0435E6806F4803665
:1020B000B6F5803F00D12043224E3060361D306897
:1020C000A0435E6806F40036B6F5003F00D1204319
:1020D0001C4E361D3060361D3068A0435E6806F425
:1020E0008016B6F5801F00D12043164E08363060AA
:1020F000361D3068A0435E6806F40016B6F5001F72
:1021000000D120430F4E0C363060491C1029FFF4DB
:1021100018AFF8BD443802400838014000000240C2
:102120000004024000080240000C0240001002407F
:102130000014024000180240001C0240002002402F
:1021400000240240003C0140024613690B400BB1E1
:10215000012000E00020704742694A404261704718
:102160000AB1816101E00B04836170470148006896
:10217000704700005801002010B504460CB901203A
:1021800010BD242084F841002068006820F0010080
:1021900021680860204600F029FA0020606484F875
:1021A0004100206384F8420000BF84F8400000BF73
:1021B00000BFE5E7014691F84100704710B50446BD
:1021C0000CB9012010BD94F8410028B9002084F812
:1021D0004000204600F00BFA242084F841002068DB
:1021E000006820F0010021680860606820F07060DD
:1021F000216808612068806820F4004021688860B8
:10220000A06868B1E068012805D1A06840F40040EA
:102210002168886004E0A06840F404402168886078
:10222000E068022802D18002216848602068406886
:102230001049084321684860D4E904010843A169B2
:1022400040EA01202168C860D4E9070108432168F9
:1022500008602068006840F00100216808600020E4
:102260006064202084F841000020206384F842004C
:1022700000BFA7E7008000022DE9FC5F0446894605
:1022800092469B46DDE90C780E9E002594F84100AD
:1022900020287DD117B1B8F1000F02D10120BDE88F
:1022A000FC9F00BF94F84000012801D10220F6E70E
:1022B000012084F8400000BFFFF758FF05461923AE
:1022C0000122D1032046009502F0F6F908B103205F
:1022D000E5E7222084F84100402084F842000020F5
:1022E00060646762A4F82A8060635B465246494690
:1022F0002046CDE9006502F03BF980B1606C04280E
:1023000006D100BF002084F8400000BF0120C6E7CE
:1023100000BF002084F8400000BF0320BFE7608DAD
:10232000FF280DD9FF2020854FF41050009094F81D
:1023300028204FF080734946204602F0A5F90CE0B2
:10234000608D20854FF41050009094F828204FF0B5
:1023500000734946204602F097F900BF3346002239
:1023600004212046009502F0A7F908B1032096E762
:102370002068406AC1B2626A501C60621170208D90
:10238000401E2085608D401E6085208D48BB00E08A
:102390004BE0608D28B33346002280212046009513
:1023A00002F08AF908B1032079E7608DFF280CD983
:1023B000FF2020850020009094F828204FF08073A3
:1023C0004946204602F060F90BE0608D2085002030
:1023D000009094F828204FF000734946204602F000
:1023E00053F9608D0028B9DC2A463146204602F0B8
:1023F0008EF930B1606C042801D101204FE7032031
:102400004DE720202168C8612068406808490840DD
:1024100021684860202084F84100002084F84200B0
:1024200000BF84F8400000BF39E7022037E7000012
:1024300000E800FE2DE9FC5F0446894692469B4673
:10244000DDE90C780E9E002594F8410020286ED11D
:1024500017B1B8F1000F02D10120BDE8FC9F00BF09
:1024600094F84000012801D10220F6E7012084F809
:10247000400000BFFFF77AFE054619230122D10371
:102480002046009502F018F908B10320E5E7212065
:1024900084F84100402084F84200002060646762B4
:1024A000A4F82A8060635B46524649462046CDE93F
:1024B000006502F0A3F880B1606C042806D100BF6B
:1024C000002084F8400000BF0120C6E700BF0020C4
:1024D00084F8400000BF0320BFE7608DFF280CD9BF
:1024E000FF2020850020009094F828204FF0807372
:1024F0004946204602F0C8F80BE0608D2085002098
:10250000009094F828204FF000734946204602F0CE
:10251000BBF800BF2A463146204602F023F938B105
:10252000606C042801D1012097E7032095E759E06A
:10253000616A481C6062087821688862608D401E6C
:102540006085208D401E2085208D38BB608D28B38E
:102550003346002280212046009502F0ADF808B1F4
:1025600003207AE7608DFF280CD9FF20208500200A
:10257000009094F828204FF080734946204602F0DE
:1025800083F80BE0608D20850020009094F82820CF
:102590004FF000734946204602F076F8608D00281F
:1025A000B8DC2A463146204602F0B1F830B1606C02
:1025B000042801D1012050E703204EE720202168A4
:1025C000C8612068406808490840216848602020A8
:1025D00084F84100002084F8420000BF84F84000E5
:1025E00000BF3AE7022038E700E800FE7047704776
:1025F00002480068401C01490860704758010020EB
:1026000010B50848006840F40070064908600320CF
:1026100000F072F9002000F007F800F011F9002036
:1026200010BD0000003C024070B504460748006839
:102630004FF47A71B0FBF1F5284601F0FEFE00225E
:102640002146501E00F019F9002070BD0000002046
:1026500070B504460E46154600BF94F8A000012848
:1026600001D1022070BD012084F8A00000BF02202B
:1026700084F8A10005EB850101EBC50204F13801E6
:1026800001EB820034223146FDF767FF2A463146CE
:10269000204602F0FBF901202168486284F8A1007D
:1026A00000BF002084F8A00000BF00BFDAE70146A9
:1026B00091F8A1007047000070B50446002500267F
:1026C0000CB9012070BD94F8A10028B9002084F84D
:1026D000A000204600F084F8022084F8A1002068C1
:1026E000806920F0704021688861D4E901010843C5
:1026F000E168084321690843216889690843216822
:102700008861206880683549084021688860A08A0F
:10271000050420688068A16929430843216888600E
:102720002068C0682D4908402168C860A08B050456
:102730002068C068216A294308432168C86020686E
:1027400000692649084021680861A08C05042068BA
:102750000069A16A2943084321680861206840692B
:102760001E49084021684861A08D05042068406921
:10277000216B294308432168486194F8350005021C
:1027800094F8360006042068C06A00F07F40216893
:10279000C86246EA050094F8341008432168C96A03
:1027A00008432168C8622068406B40F0040021683B
:1027B00048632068406B40F002002168486320684D
:1027C000806940F00100216888610020C4F8A400FD
:1027D000012084F8A100002074E7000000F800F058
:1027E000704700004178154A11600178F9B1121D57
:1027F00041681160017B0907C27A41EA0261827A6D
:1028000041EAC241427B41EA8241827B41EA424144
:10281000C27B41EA0241427A41EA0221027A41EA5C
:10282000420102781143054A0832116005E0002197
:10283000024A121D1160121D1160704798ED00E0F0
:102840007047000000BF00F01F0201219140034AC1
:10285000430942F8231000BF7047000080E100E008
:1028600000BF00F01F02012191404209920002F1D5
:10287000E022C2F8001100BF70472DE9F05F8046EA
:102880000D461646002702F041FB074639462A4608
:10289000334601F00700C0F1070ABAF1040F02D96C
:1028A0004FF0040A01E0C0F1070AD14600F1040A22
:1028B000BAF1070F02D24FF0000A01E0A0F1030ABB
:1028C000D4464FF0010A0AFA09FAAAF1010A0AEA03
:1028D000020A0AFA0CFA4FF0010B0BFA0CFBABF1EF
:1028E000010B0BEA030B4AEA0B042146404602F0B7
:1028F00015FBBDE8F09F000000BF00F00702064B8B
:1029000019684FF6FF031940044B0B4343EA0221B9
:10291000014B196000BF70470CED00E00000FA05A4
:1029200038B5002400BF2048006840F080501E49A0
:1029300008600846006800F08050009000BF00BFAB
:102940001A48006840F4803018490860FFF70EFC10
:10295000044607E0FFF70AFC001BB0F57A7F01D9B7
:10296000032038BD1148406800F48030B0F5803F46
:10297000F0D10E48006840F400300C490860FFF7C1
:10298000F5FB044607E0FFF7F1FB001BB0F57A7F8B
:1029900001D90320E5E70548406800F40030B0F5B0
:1029A000003FF0D10020DCE74038024000700040DA
:1029B000F8B504460025FFF7D9FB064694F8390020
:1029C00000F00200002838D000BF002084F8380052
:1029D00000BF2068006800F0040070B12068006843
:1029E00020F0040021680860606BFFF798F9054645
:1029F0001DB1E06B40F00400E0632068006840F027
:102A0000020021680860206C3346012202210090F8
:102A1000204602F056FC05465DB902202168C860D8
:102A2000206C3346002220210090204602F049FC11
:102A3000054615B9012084F839002846F8BD2DE96E
:102A4000F84304460E4615461F464FF00108FFF7AF
:102A50008DFB8146B06900B100BFF06900B100BFD5
:102A6000306A00B100BF00BF94F83800012802D1DD
:102A70000220BDE8F883012084F8380000BF94F8F4
:102A8000390001283CD10020E063422084F839005D
:102A90004B46002220212046009702F012FC80467F
:102AA000B8F1000F2ED12868216888626868216813
:102AB0004862A8682168C8622068006820F4400065
:102AC000296941F48001084321680860E868B06220
:102AD0004FF000623146204602F07DFA4B4601225B
:102AE00008212046009702F0ECFB8046B8F1000F69
:102AF00008D108202168C860012084F8390001E06D
:102B00004FF0020800BF002084F8380000BF4046A4
:102B1000AFE72DE9F84304460D4616460127FFF7B7
:102B200025FB8046A86900B100BFE86900B100BF7D
:102B3000286A00B100BF00BF94F83800012802D114
:102B40000220BDE8F883012084F8380000BF94F823
:102B50003900012828D10020E063022084F83900E0
:102B60004346002220212046009602F0AAFB074699
:102B7000DFB900222946204602F02DFA686A78B9AA
:102B80004346012202212046009602F09AFB0746A6
:102B90005FB902202168C860012084F8390004E090
:102BA000012084F8390000E0022700BF002084F8EB
:102BB000380000BF3846C4E710B504460CB9012000
:102BC00010BD00BF94F83800012801D10220F7E7BA
:102BD000012084F8380000BF2068006820F0010060
:102BE00021680860204600F0CEF80020E06384F8F9
:102BF000390000BF84F8380000BF00BFE0E70000E4
:102C0000F8B504460125FFF7B1FA06460CB90120D4
:102C1000F8BD206A402800D000BF00BF94F83800FB
:102C2000012801D10220F3E7012084F8380000BF19
:102C300094F8390050B9002084F83800204600F09C
:102C4000A3F841F28831204600F014F920680068AA
:102C500020F4F851A068401E41EA00202168086075
:102C6000206C3346002220210090204602F029FBF0
:102C7000054635BB2179E06840EA0160E169084317
:102C8000216A084321680968114A114008432168F4
:102C90000860208A616941EA0040A169084321680F
:102CA00049680C4A11400843216848602068006860
:102CB00040F00100216808600020E063012084F8F2
:102CC000390000BF002084F8380000BF28469FE785
:102CD0002FFFFF00FEF8E0FF2DE9F84304460D4604
:102CE00016460127FFF742FA8046A86900B100BFE7
:102CF000E86900B100BF286A00B100BF00BF94F8C6
:102D00003800012802D10220BDE8F883012084F8B0
:102D1000380000BF94F8390001282CD10020E0636E
:102D2000822084F83900206C434600222021009044
:102D3000204602F0C6FA0746F7B92068006820F07E
:102D400008007168084321680860706808280BD182
:102D500030682168086310202168C8602068006816
:102D600040F48010216808604FF0406229462046F8
:102D700002F031F900E0022700BF002084F838009B
:102D800000BF3846C0E7704770472DE9F84F04464A
:102D90000E4617460025FFF7E9F980462068D0F86F
:102DA0001890206800F1200A00BF94F8380001282C
:102DB00002D10220BDE8F88F012084F8380000BF5E
:102DC00094F8390001284DD10020E063002E43D053
:102DD000222084F8390020680069401C6086206841
:102DE0000069401C2086E6622068406920F040604F
:102DF00040F08060216848612068C0F8189012E0B7
:102E00004346012206212046009702F05AFA054661
:102E100005B10BE09AF80010E26A501CE0621170F4
:102E2000608E401E6086608E0028E9DC00BF7DB9A0
:102E30004346012202212046009702F042FA05464D
:102E400035B902202168C8602046FFF7B1FD05466C
:102E5000012084F8390006E0E06B40F00800E063F0
:102E6000012500E0022500BF002084F8380000BFE3
:102E700028469FE7016470472DE9F84304460E4653
:102E800017460025FFF772F98046206800F12009F7
:102E900000BF94F83800012802D10220BDE8F88371
:102EA000012084F8380000BF94F83900012848D187
:102EB0000020E063002E3ED0122084F83900206804
:102EC0000069401C608520680069401C208566629E
:102ED0002068406920F040602168486112E0434664
:102EE000012204212046009702F0EBF9054605B1C6
:102EF0000BE0616A481C6062087889F80000608D08
:102F0000401E6085608D0028E9DC00BF7DB9434626
:102F1000012202212046009702F0D3F9054635B977
:102F200002202168C8602046FFF742FD05460120C7
:102F300084F8390006E0E06B40F00800E06301250A
:102F400000E0022500BF002084F8380000BF2846BA
:102F5000A4E700002DE9F8430446002600250027D9
:102F6000A846A946207800F0010088B100BFFE48BD
:102F7000006820F40000FC49086008460068616BA6
:102F80000843F949086000BF606B08B94FF00108B9
:102F9000206800F40020B0F5002F13D1F2488430EF
:102FA000006820F44010E16B0843EF498431086069
:102FB000E06BB0F5801F01D14FF00108E06B08B95C
:102FC0004FF00109206800F48010B0F5801F13D184
:102FD000E5488430006820F44000216C0843E24951
:102FE00084310860206CB0F5800F01D14FF00108EA
:102FF000206C08B94FF00109206800F08070B0F132
:10300000807F01D14FF00108207800F020002028B7
:1030100070D100BFD4483830006840F08050D249A9
:10302000383108600846006800F08050009000BF0A
:1030300000BFCE48006840F48070CC490860FFF7BC
:1030400095F8064607E0FFF791F8801B642802D93F
:103050000320BDE8F883C548006800F480700028AC
:10306000F1D0C1486830006800F4407585B3208E07
:1030700000F44070A8422BD0BB486830006820F4B0
:103080004075B9486830006840F48030B64968310E
:1030900008600846006820F4803008600846056033
:1030A000006800F0010098B1FFF760F8064608E0FC
:1030B000FFF75CF8801B41F28831884201D9032078
:1030C000C7E7A94868300068C0F340000028EFD087
:1030D00000BF208E00F44070B0F5407F0BD1A248B5
:1030E000006820F4F810A24A216B114008439E4961
:1030F000086006E010E09C48006820F4F8109A4947
:103100000860994868300068218EC1F30B010843BC
:1031100095496831086000BF207800F01000102841
:1031200010D100BF90488430006820F080708E4934
:103130008431086008460068A16B08438A498431DD
:10314000086000BF208800F48040B0F5804F09D1AE
:1031500085488830006820F44030616E0843824919
:1031600088310860208800F40040B0F5004F09D194
:103170007D488830006820F44020A16E08437A49D9
:1031800088310860206800F48030B0F5803F09D1B4
:1031900075488830006820F44010E16E0843724999
:1031A00088310860206800F40030B0F5003F09D194
:1031B0006D488830006820F44000216F08436A4958
:1031C00088310860207800F04000402809D1664826
:1031D0008830006820F00300616C08436249883140
:1031E0000860207800F08000802809D15E4888308F
:1031F000006820F00C00A16C08435B49883108602E
:10320000208800F48070B0F5807F09D1564888305E
:10321000006820F03000E16C0843534988310860B1
:10322000208800F40070B0F5007F09D14E48883046
:10323000006820F0C000216D08434B4988310860C8
:10324000208800F48060B0F5806F09D1464888304E
:10325000006820F44070616D08434349883108607C
:10326000208800F40060B0F5006F09D13E48883036
:10327000006820F44060A16D08433B498831086034
:10328000208800F48050B0F5805F09D1364888303E
:10329000006820F44050E16D0843334988310860EC
:1032A000208800F40050B0F5005F09D12E48883026
:1032B000006820F44040216E08432B4988310860A3
:1032C000206800F48000B0F5800F09D126488830CE
:1032D000006820F08060A16F0843234988310860AE
:1032E000206800F40010B0F5001F0FD11E48883090
:1032F000006820F00060E16F08431B4988310860D6
:10330000E06FB0F1006F01D14FF00109207800F0BB
:103310000800082801D14FF00109206800F480203E
:10332000B0F5802F09D110488830006820F0407037
:10333000616F08430C4988310860206800F4000080
:10334000B0F5000F0AD108488830006820F080509E
:10335000D4F880100843044988310860B8F1010F9F
:103360000BD0206806E000000838024000700040E2
:10337000FFFCFF0FB0F1007F7ED1FE48006820F017
:103380008060FC490860FEF7F1FE064606E0FEF7A5
:10339000EDFE801B642801D903205AE6F548006839
:1033A000C0F3C0600028F2D1207800F00100E8B33B
:1033B000606BD8BBEF488430006800F440304FF4B5
:1033C000403191FAA1F1B1FA81F120FA01F5E94811
:1033D0008430006800F070604FF0706191FAA1F1E4
:1033E000B1FA81F120FA01F747F6C07191FAA1F123
:1033F000B1FA81F1606888404FF4403191FAA1F14F
:10340000B1FA81F105FA01F108434FF0706191FAC8
:10341000A1F1B1FA81F107FA01F108434FF0E0425E
:1034200092FAA2F2B2FA82F2A16800E004E09140BE
:103430000843D04984310860206800F40020B0F5CA
:10344000002F03D1E06BB0F5801F09D0206800F495
:103450008010B0F5801F50D1206CB0F5800F4CD19A
:10346000C4488430006800F440304FF4403191FA91
:10347000A1F1B1FA81F100E0C8E020FA01F5BD4800
:103480008430006800F0E0404FF0E04191FAA1F193
:10349000B1FA81F120FA01F747F6C07191FAA1F172
:1034A000B1FA81F1606888404FF4403191FAA1F19E
:1034B000B1FA81F105FA01F108434FF0706292FA16
:1034C000A2F2B2FA82F2E168914008434FF0E04183
:1034D00091FAA1F1B1FA81F107FA01F10843A54986
:1034E00084310860A3488C30006820F01F00616AB6
:1034F000491E08439F498C310860206800F08070A5
:10350000B0F1807F3FD19B488430006800F070604C
:103510004FF0706191FAA1F1B1FA81F120FA01F551
:1035200094488430006800F0E0404FF0E04191FAA8
:10353000A1F1B1FA81F120FA01F747F6C07191FAD1
:10354000A1F1B1FA81F1606888404FF4403292FAFB
:10355000A2F2B2FA82F22169914008434FF0706101
:1035600091FAA1F1B1FA81F105FA01F108434FF0A6
:10357000E04191FAA1F1B1FA81F107FA01F10843B2
:103580007C4984310860206800F00070B0F1007F51
:1035900025D147F6C07191FAA1F1B1FA81F16068C5
:1035A00088404FF4403292FAA2F2B2FA82F22169D4
:1035B000914008434FF0706292FAA2F2B2FA82F29E
:1035C000E168914008434FF0E04292FAA2F2B2FA69
:1035D00082F2A168914008436649843108606548D9
:1035E000006840F0806063490860FEF7BFFD064652
:1035F00006E0FEF7BBFD801B642801D9032028E507
:103600005C480068C0F3C0600028F2D0B9F1010F37
:103610007ED15848006820F0805056490860FEF777
:10362000A5FD064606E0FEF7A1FD801B642801D932
:1036300003200EE54F480068C0F340700028F2D127
:10364000206800F40020B0F5002F01D1E06B38B104
:10365000206800F48010B0F5801F4ED1206CE8BBCC
:1036600044488830006800F440304FF4403191FA0B
:10367000A1F1B1FA81F120FA01F53E4888300068E5
:1036800000F0E0404FF0E04191FAA1F1B1FA81F190
:1036900020FA01F747F6C07191FAA1F1B1FA81F170
:1036A000606988404FF4403191FAA1F1B1FA81F19B
:1036B00005FA01F108434FF0706292FAA2F2B2FAF1
:1036C00082F2A169914008434FF0E04191FAA1F1E3
:1036D000B1FA81F107FA01F1084300E00DE0254954
:1036E00088310860081D006820F4F851A06A401E67
:1036F00041EA00201F498C310860206800F4001066
:10370000B0F5001F48D1E06FB0F1006F44D100E088
:10371000A7E018488830006800F070604FF07061D2
:1037200091FAA1F1B1FA81F120FA01F5114888303E
:10373000006800F0E0404FF0E04191FAA1F1B1FAE9
:1037400081F120FA01F747F6C07191FAA1F1B1FABF
:1037500081F1606988404FF4403292FAA2F2B2FAE5
:1037600082F2216A914008434FF0706191FAA1F111
:1037700002E0000000380240B1FA81F105FA01F1DF
:1037800008434FF0E04191FAA1F1B1FA81F107FA53
:1037900001F1084334490860207800F00800082847
:1037A00045D13148006800F070604FF0706191FAC7
:1037B000A1F1B1FA81F120FA01F52B48006800F47B
:1037C00040304FF4403191FAA1F1B1FA81F120FA81
:1037D00001F747F6C07191FAA1F1B1FA81F1606980
:1037E00088404FF4403191FAA1F1B1FA81F107FA22
:1037F00001F108434FF0706191FAA1F1B1FA81F142
:1038000005FA01F108434FF0E04292FAA2F2B2FA4F
:1038100082F2E1699140084313490860081D00687D
:1038200020F44030E16A08430F49091D08600E4842
:103830008838006840F080500B4988390860FEF7EE
:1038400095FC064606E0FEF791FC801B642801D932
:10385000032035E4044888380068C0F3407000282D
:10386000F1D000202CE400008838024070B50446F6
:103870000D4600266648006800F00F00A8420ED2F0
:103880006348006820F00F0028436149086008463B
:10389000006800F00F00A84201D0012070BD207820
:1038A00000F00200022807D15A48006820F0F0001A
:1038B000A168084357490860207800F001000028FB
:1038C00060D06068012807D1524808380068C0F30A
:1038D0004040A0B90120E1E76068022807D14D48C7
:1038E00008380068C0F3406048B90120D6E749486D
:1038F00008380068C0F3400008B90120CEE7454809
:10390000006820F003006168084342490860FEF740
:103910002DFC06466068012810D108E0FEF726FC61
:10392000801B41F28831884201D90320B6E739482B
:10393000006800F00C000428F0D123E06068022841
:1039400010D108E0FEF712FC801B41F2883188425A
:1039500001D90320A2E72F48006800F00C000828D6
:10396000F0D10FE008E0FEF701FC801B41F2883146
:10397000884201D9032091E72648006800F00C0036
:103980000028F0D12248006800F00F00A8420ED9AC
:103990001F48006820F00F0028431D4908600846B2
:1039A000006800F00F00A84201D0012076E72078DF
:1039B00000F00400042807D11648006820F4E05005
:1039C000E168084313490860207800F008000828DF
:1039D00008D11048006820F46040216940EAC10025
:1039E0000C49086000F01CF80A49096801F0F00170
:1039F000F02292FAA2F2B2FA82F2D140064A515C67
:103A0000C840064908600020FEF70EFE002045E78A
:103A1000003C024008380240566D010800000020BA
:103A200070B50021002200230020274C246804F0F8
:103A30000C0424B1042C04D0082C41D103E0234809
:103A400040E023483EE0204C241F246804F03F015E
:103A50001D4C241F246804F4800484B11C4CB4FB66
:103A6000F1F5194C241F246847F6C076344096FAC5
:103A7000A6F6B6FA86F6F44005FB04F20FE0134C06
:103A8000B4FBF1F5104C241F246847F6C07634408F
:103A900096FAA6F6B6FA86F6F44005FB04F20A4C4E
:103AA000241F246804F440344FF4403595FAA5F5FA
:103AB000B5FA85F5EC40641C6300B2FBF3F001E05D
:103AC000024800BF00BF70BD083802400024F40067
:103AD00040787D0138B504460025207800F00100CB
:103AE000002873D0F748006800F00C0004280DD0BF
:103AF000F448006800F00C00082813D1F148001FBA
:103B0000006800F48000B0F5800F0BD1ED48083854
:103B10000068C0F3404000286DD0606800286AD17A
:103B2000012038BD00BF6068B0F5803F08D1E5488E
:103B30000838006840F48030E249083908602EE017
:103B4000606868B9DF480838006820F48030DD49D3
:103B5000083908600846006820F4802008601EE0EC
:103B60006068B0F5A02F0DD1D6480838006840F441
:103B70008020D449083908600846006840F4803045
:103B800008600CE0CF480838006820F48030CD4948
:103B9000083908600846006820F48020086000BFEB
:103BA0006068A0B1FEF7E2FA054608E0FEF7DEFA2B
:103BB000401B41F28831884201D90320B1E7C14856
:103BC00008380068C0F340400028EFD013E0FEF74B
:103BD000CDFA054608E0FEF7C9FA401B41F28831EC
:103BE000884201D903209CE7B64808380068C0F332
:103BF00040400028EFD1207800F00200022873D165
:103C0000B048006800F00C0058B1AE48006800F001
:103C10000C00082821D1AB48001F006800F4800088
:103C2000D8B9A84808380068C0F3400020B1E0685F
:103C3000012801D0012074E7A2480838006820F06C
:103C4000F800F82292FAA2F2B2FA82F221699140C7
:103C500008439C490839086046E0E06850B3994839
:103C60000838006840F00100964908390860FEF7FE
:103C70007DFA054606E0FEF779FA401B022801D9D5
:103C800003204EE78F4808380068C0F34000002842
:103C9000F1D08C480838006820F0F800F82292FA39
:103CA000A2F2B2FA82F221699140084385490839AB
:103CB000086019E083480838006820F00100814955
:103CC00008390860FEF752FA054606E0FEF74EFA9C
:103CD000401B022801D9032023E77A4808380068EE
:103CE000C0F340000028F1D1207800F00800082837
:103CF00036D16069D0B173486C30006840F0010083
:103D000070496C310860FEF731FA054606E0FEF7AF
:103D10002DFA401B022801D9032002E769486C30C4
:103D20000068C0F340000028F1D019E065486C300D
:103D3000006820F0010063496C310860FEF716FA54
:103D4000054606E0FEF712FA401B022801D90320BF
:103D5000E7E65C486C300068C0F340000028F1D111
:103D6000207800F00400042871D100BF5548383095
:103D7000006840F0805053493831086008460068B8
:103D800000F08050009000BF00BF4F48006840F432
:103D900080704D490860FEF7E9F9054606E0FEF738
:103DA000E5F9401B642801D90320BAE646480068BB
:103DB00000F480700028F2D000BFA068012808D16C
:103DC00040486830006840F001003E4968310860B2
:103DD0002DE0A06868B93B486830006820F0010019
:103DE0003849683108600846006820F0040008601F
:103DF0001DE0A06805280DD132486830006840F009
:103E000004003049683108600846006840F001004D
:103E100008600CE02B486830006820F00100294958
:103E2000683108600846006820F00400086000BFA0
:103E3000A068A8B1FEF79AF9054609E0FEF796F9E1
:103E4000401B41F28831884202D9032069E61BE019
:103E50001C4868300068C0F340000028EED013E032
:103E6000FEF784F9054608E0FEF780F9401B41F2B1
:103E70008831884201D9032053E61248683000682F
:103E8000C0F340000028EFD1A069E8B30D480068F6
:103E900000F00C00082876D0A06902285AD1094801
:103EA0000838006820F08070064908390860FEF77D
:103EB0005DF905460AE0FEF759F9401B022805D9CD
:103EC00003202EE6083802400070004030480068A9
:103ED000C0F340600028EED1D4E90701084347F65B
:103EE000C07292FAA2F2B2FA82F2616A9140084379
:103EF0000122A16AC2EB51014FF4403292FAA2F2C0
:103F0000B2FA82F2914000E03FE008434FF0706265
:103F100092FAA2F2B2FA82F2E16A914008431C4995
:103F2000091D0860081F006840F08070091F0860C4
:103F3000FEF71CF9054606E0FEF718F9401B0228BB
:103F400001D90320EDE512480068C0F34060002865
:103F5000F2D01AE00E48006820F080700C4908602A
:103F6000FEF704F9054607E0FEF700F9401B0228BA
:103F700002D90320D5E506E005480068C0F340609B
:103F80000028F1D101E00120CBE50020C9E50000C7
:103F90000038024070B505460B46164600242868D6
:103FA00040680E4900EA0104200CD870C4F30420D4
:103FB000587004F03F009870C4F3423018705EB936
:103FC000D87801F0DAF9D870587801F0D6F958703D
:103FD000987801F0D2F99870002070BD3FFFFF0083
:103FE00070B504460B46164600252068806A586066
:103FF00020680069C0F30E009860206800680F49CF
:1040000000EA0105C5F305401870C5F30620587095
:1040100005F07F00987005F48000000C18735EB9FD
:10402000187801F0AAF91870587801F0A6F95870BC
:10403000987801F0A2F99870002070BD7F7F7F0012
:1040400010B504460CB9012010BD607F20B90020D6
:104050002077204600F04EF80220607700BFCA208B
:104060002168486253202168486200BF204601F061
:104070009CF940B100BFFF202168486200BF0420C6
:1040800060770120E0E720688068194908402168CE
:10409000886021696068084361690843216889680C
:1040A0000843216888602168E06808612068016928
:1040B000208941EA0040216808612068C06820F03A
:1040C00080002168C8602068C06C20F0080021686A
:1040D000C8642068C06CA16908432168C86400BF37
:1040E000FF202168486200BF012060770020ABE715
:1040F000BFFF8FFF054A0168914205D10449096855
:1041000041F40041024A116070470000002800405D
:10411000703802402DE9F04104460D46164600274E
:1041200000BF207F012802D10220BDE8F0810120DC
:10413000207700BF022060774EB9687800F0100049
:10414000102804D1687800F0EF000A30687086B952
:10415000E87801F01DF90304687801F019F943EAE1
:104160000023A87801F014F90343287843EA403784
:1041700011E0687801F001F90746A87801F0FDF830
:104180000746E8780004697840EA0120A9780843E6
:10419000297840EA413700BFCA202168486253208D
:1041A0002168486200BF204601F0FFF860B100BFFF
:1041B000FF202168486200BF0420607700BF002014
:1041C000207700BF0120B0E71648384021684860DA
:1041D0002068C06820F080002168C860206880687E
:1041E00000F0200080B9204600F0B8F860B100BFB0
:1041F000FF202168486200BF0420607700BF0020D4
:10420000207700BF012090E700BFFF2021684862AF
:1042100000BF0120607700BF0020207700BF00BFF3
:1042200083E700003FFFFF002DE9F04104460D4603
:104230001646002700BF207F012802D10220BDE8DA
:10424000F0810120207700BF02206077CEB920687E
:10425000806800F0400000B102E00020287300BF39
:10426000287801F095F80304687801F091F843EAA2
:104270000023A87801F08CF80343287B43EA004729
:1042800016E02068806800F0400020B1287801F036
:1042900074F8074602E00020287300BF2878000465
:1042A000697840EA0120A9780843297B40EA014760
:1042B00000BFCA202168486253202168486200BFBD
:1042C000204601F072F860B100BFFF20216848620B
:1042D00000BF0420607700BF0020207700BF0120CE
:1042E000ADE71D483840216808602068806820F4E8
:1042F000802021688860D5E9040108432168896825
:104300000843216888602068C06820F08000216828
:10431000C8602068806800F0200080B9204600F066
:104320001DF860B100BFFF202168486200BF042073
:10433000607700BF0020207700BF01207FE700BF2B
:10434000FF202168486200BF0120607700BF002085
:10435000207700BF00BF72E77F7F7F0070B5044603
:1043600000252068C06820F0A0002168C860FDF723
:10437000FDFE054607E0FDF7F9FE401BB0F57A7F2C
:1043800001D9032070BD2068C06800F0200000281B
:10439000F1D00020F6E770B504460D460CB90120B7
:1043A00070BD94F82C0028B9002084F82D00204618
:1043B00000F011F8022084F82C00211D2068FDF780
:1043C00030FA2946D4E90002FDF796FA012084F874
:1043D0002C000020E4E7704770B504460D4694F8C1
:1043E0002C00022800D170BD022084F82C00294640
:1043F0002068FDF750FA012084F82C000020F2E735
:1044000070B504460D46164694F82C00022800D1DB
:1044100070BD022084F82C00324629462068FDF742
:1044200041FA2868022803D1052084F82C0002E014
:10443000012084F82C000020EAE770B504462546E8
:10444000681EB0F1807F01D301200FE0681E4FF09D
:10445000E02148610F214FF0FF3000F05FFD0020A8
:104460004FF0E021886107200861002070BD10B581
:1044700004460CB9012010BD94F8390010B920464B
:1044800000F00CF8022084F83900211D206801F0AA
:1044900049F8012084F839000020ECE77047014614
:1044A000022081F839000868006840F001000A68BD
:1044B0001060012081F83900002070470168896987
:1044C000C1F3400111B1002102689162016889695C
:1044D00001F0010129B90168896941F0010102680F
:1044E0009161704770B504460D4616462068806994
:1044F000C0F30010002837D013E0681C88B125B144
:10450000FDF734FE801BA8420BD9202084F841001F
:10451000002084F8420000BF84F8400000BF032060
:1045200070BD20688069C0F340100028E5D01020DD
:104530002168C86120202168C8612046FFF7BEFFBE
:104540002068406809490840216848600420606488
:10455000202084F84100002084F8420000BF84F845
:10456000400000BF0120DBE70020D9E700E800FEA3
:104570002DE9F8430446894615461E46DDE90878CC
:104580004FF40050F2B2002349460090204600F05C
:104590007BF842463946204600F0E4F838B1606CBA
:1045A000042802D10120BDE8F8830320FBE7012E97
:1045B00003D1E8B22168886213E0C5F307202168BF
:1045C000886242463946204600F0CCF830B1606C33
:1045D000042801D10120E6E70320E4E7E8B22168DE
:1045E00088623B46002240212046CDF8008000F042
:1045F00063F808B10320D6E70020D4E72DE9F8439B
:104600000446894615461E46DDE908784FF40050F9
:10461000F2B2C30249460090204600F035F8424607
:104620003946204600F09EF838B1606C042802D16B
:104630000120BDE8F8830320FBE7012E03D1E8B297
:104640002168886213E0C5F307202168886242462A
:104650003946204600F086F830B1606C042801D15C
:104660000120E6E70320E4E7E8B2216888623B46E0
:10467000002280212046CDF8008000F01DF808B10E
:104680000320D6E70020D4E7F0B50C46059D0021B5
:1046900006687168074E3140C4F309064FF47F077E
:1046A00007EA02473E431E432E43314306687160CA
:1046B000F0BD0000009800FC2DE9F04104460E46D4
:1046C00017461D46DDF8188015E0681C98B12DB11D
:1046D000FDF74CFDA0EB0800A8420CD9202084F87F
:1046E0004100002084F8420000BF84F8400000BF71
:1046F0000320BDE8F081206880693040B04201D1DC
:10470000012000E00020B842DFD00020F1E770B5C2
:1047100004460D4616461DE0324629462046FFF760
:10472000E1FE08B1012070BD25B1FDF71FFD801B22
:10473000A8420FD9606C40F020006064202084F80B
:104740004100002084F8420000BF84F8400000BF10
:104750000320E8E720688069C0F340100028DBD020
:104760000020E0E770B504460D4616461FE03246CD
:1047700029462046FFF7B6FE08B1012070BD681C2F
:10478000A8B125B1FDF7F2FC801BA8420FD9606CDF
:1047900040F020006064202084F84100002084F86C
:1047A000420000BF84F8400000BF0320E6E7206815
:1047B0008069C0F340000028D9D00020DEE770B542
:1047C00004460D462046FDF7D7FC204600F002F8CF
:1047D00070BD000010B504462046FDF7EBFCC0B9E3
:1047E0000C48844202D10C48206001E00B48206054
:1047F0000B4860600021A1600121E160002121617E
:104800006161E1612162204600F00CF82046FDF76D
:10481000D5FC10BD6C0E0020005C00400054004030
:104820003227914010B586B004465348844250D197
:1048300000BF5248006840F08000504908600846B8
:10484000006800F08000009000BF00BF8020019051
:104850001220029000200390022004900420059072
:1048600001A94748FDF764FB4FF48070019001A94E
:104870004348FDF75DFB00BF40481030006840F43E
:1048800000003E49103108600846006800F400004E
:10489000009000BF00BF39481038006840F40000A5
:1048A0003649103908600846006820F400000860A6
:1048B00000220F214820FDF7E0FF4820FDF7D0FF40
:1048C00000220F214920FDF7D8FF4920FDF7C8FF3E
:1048D0004FE000BF2948006840F002002749086007
:1048E0000846006800F00200009000BF00BF881575
:1048F00001901220029000200390022004900420D6
:10490000059001A91F48FDF713FB4FF400700190BB
:1049100001A91C48FDF70CFB00BF184810300068C7
:1049200040F400101549103108600846006800F492
:104930000010009000BF00BF10481038006840F41D
:1049400000100E49103908600846006820F4001075
:10495000086000220F211F20FDF78FFF1F20FDF7A9
:104960007FFF00220F212020FDF787FF2020FDF789
:1049700077FF06B010BD00006C0E002030380240FA
:10498000001C0240000402402DE9FE4F05460E4681
:1049900017469846DDE90C9A00244FF47A70434696
:1049A0003A463146CDE9009A02902846FDF764FC6C
:1049B00004461CB131462846FFF701FF2046BDE8FA
:1049C000FE8F2DE9FE4F05460E4617469846DDE957
:1049D0000C9A00244FF47A7043463A463146CDE9AA
:1049E000009A02902846FDF725FD04461CB1314689
:1049F0002846FFF7E4FE2046BDE8FE8F10B51F48AD
:104A0000006800F00100002836D001201B49091D74
:104A10000860081D00681A49098888421AD1194897
:104A2000008816490831086000BF1749086800BFB0
:104A300090F85610491C80F8561000BF08F0C8F9CD
:104A400000BF11480068044609F080FC00200AF00D
:104A500021FC11E00A48008808490831086000205C
:104A60000AF030FC00BF0848046800BF2068816974
:104A70002046884700BF00BF10BD000038680140D5
:104A80008600002088000020B8010020F0B5002337
:104A9000002400258E880768FF68C7F30B473E4453
:104AA000330406688436802707FB0266766806F4BE
:104AB0007047066884364FF0800C0CFB0266776006
:104AC0000E680768FF68C7F30B473E44761C1E4319
:104AD000076884370CFB02777E608E890768FF6861
:104AE000C7F30A073E44330406688436802707FB71
:104AF0000266B66806F47047066884360CFB0266E8
:104B0000B7608E680768FF68C7F30A073E44761CE3
:104B10001E43076884370CFB0277BE600668843644
:104B2000802707FB0266366926F007070668843689
:104B30000CFB026637610F69066884360CFB02665F
:104B400037613126765C33023226765C34040E7E81
:104B5000350606688436802707FB0266B66900279B
:104B6000066884360CFB0266B76191F830601E431C
:104B700026432E43076884370CFB0277BE61066824
:104B80008436802707FB0266766926F0FF070668F1
:104B900084360CFB026677614F69066884360CFB2D
:104BA0000266776106688436802707FB0266F7692C
:104BB00040F20776B743066884360CFB0266F7615D
:104BC000D1E907673E43076884370CFB0277FE6133
:104BD00006688436802707FB0266B66A00270668E7
:104BE00084360CFB0266B7624F6A066884360CFB9B
:104BF0000266B7620E690EB9042313E00E69012E36
:104C000001D103230EE00E69042E08D00E69022E96
:104C100005D00E69032E02D00E69072E01D10223A2
:104C200000E0012306688436802707FB0266F66AE7
:104C300006F0E027066884364FF0800C0CFB026615
:104C4000F762D1E90076F61B5E43F71C0E8D5E43DA
:104C500047EA0647066884360CFB0266F762066878
:104C60008436802707FB0266366BF70AFF02066868
:104C700084360CFB02663763CF6A066884360CFB09
:104C80000266376306688436D701F65946F0010795
:104C9000066884364FEAC21C46F80C70F0BD00006E
:104CA00000B587B000BF7248006840F0100070493E
:104CB00008600846006800F01000019000BF00BFC7
:104CC00000BF0846006840F04000086008460068E1
:104CD00000F04000019000BF00BF00BF0846006820
:104CE00040F0020008600846006800F002000190F1
:104CF00000BF00BF00BF0846006840F00800086021
:104D00000846006800F00800019000BF00BF00BF27
:104D10000846006840F0040008600846006800F09B
:104D20000400019000BF00BF00BF0846006840F0CB
:104D3000010008600846006800F00100019000BF13
:104D400000BF00BF0846006840F4007008600846D5
:104D5000006800F40070019000BF00BF00BF08466B
:104D6000006840F4807008600846006800F48070B5
:104D7000019000BF00BF00BF0846006840F480609B
:104D800008600846006800F48060019000BF00BF22
:104D900000BF0846006840F0200008600846006830
:104DA00000F02000019000BF00BF00BF084600686F
:104DB00040F0800008600846006800F08000019024
:104DC00000BF00BF002289152A48FDF7C9F901225A
:104DD00051022848FDF7C4F9002208212648FDF7B2
:104DE000BFF9002240212548FDF7BAF900228021B1
:104DF0002348FDF7B5F94FF480700290012003902D
:104E000000200490059002A91A48FDF791F84FF48C
:104E10000070029011200390012004900020059062
:104E200002A91448FDF784F808200290012003909D
:104E300000200490059002A90F48FDF779F8402062
:104E400002900120039000200490059002A90B48D5
:104E5000FDF76EF88020029001200390002004905E
:104E6000059002A90648FDF763F807B000BD0000F1
:104E7000303802400004024000200240001C024082
:104E80000018024000B587B01E481F490860002086
:104E900048607C211C48816041F63F71C16000215F
:104EA000016141618161FFF7CBF808B100BFFEE706
:104EB00021208DF8040015208DF8050012208DF8B2
:104EC0000600002005900690012201A90E48FFF778
:104ED000ABF908B100BFFEE704208DF80000082000
:104EE0008DF8010031208DF8020017208DF80300A5
:104EF000012269460448FFF70DF908B100BFFEE73B
:104F000007B000BD0028004050280020024800687B
:104F1000C0F30220704700000CED00E010B500283F
:104F200007DA0A07140E054A00F00F031B1FD454BA
:104F300003E00A07130E024A135410BD18ED00E0F7
:104F400000E400E010B500BF4FF4A070EFF3118152
:104F500072B680F31188BFF34F8FBFF36F8F62B6C5
:104F600000BF0FF093FE18B14FF080500349086066
:104F7000002080F3118800BF10BD000004ED00E0A8
:104F800030B595B005460C464FF480700D90052065
:104F9000079000200E900F904FF08070109000202E
:104FA0000C90129013901490019001200290002018
:104FB0000590012004901020039080040690234661
:104FC00001AA07A92846FDF73AFD10B1012015B046
:104FD00030BD0020FBE710B54B6A33B1B2F1406F32
:104FE00003D08B6A5B1E046823618B69002B76D02B
:104FF0000B6AE3B38B680468E361CB69FBB1D1E969
:105000000B3423434C6B23434C6A23438C8A43EA7F
:1050100084430C6923430C6A2343CC682343CC6943
:1050200023438C6923430C6823431343046863615F
:10503000B2F1406F02D04B680468A361BEE0D1E9D1
:105040000B3423434C6B23434C6A23438C8A43EA3F
:1050500084430C6923430C6A2343CC6923438C6942
:1050600023430C682343134304686361A6E0FFE70E
:10507000CB69EBB1D1E90B3423434C6B23434C6A2E
:1050800023438C8A43EA84430C6A2343CC6823433A
:10509000CC6923438C6923430C682343134304687E
:1050A0006361B2F1406FC9D04B680468A36185E0C9
:1050B000D1E90B3423434C6B23434C6A23438C8A42
:1050C00043EA84430C6A2343CC6923438C6923431A
:1050D0000C6823431343046863616FE0FFE70B6AC6
:1050E000C3B38B680468E361CB69EBB1D1E90B34DE
:1050F00023434C6B23434C6A23438C8A43EA844307
:105100000C6923430C6A2343CC682343CC692343B3
:105110008C692343134304686361B2F1406F4DD03F
:105120004B680468A36149E0D1E90B3423434C6B1D
:1051300023434C6A23438C8A43EA84430C69234308
:105140000C6A2343CC6923438C69234313430468CB
:10515000636133E0FFE7CB69DBB1D1E90B34234373
:105160004C6B23434C6A23438C8A43EA84430C6A86
:105170002343CC682343CC6923438C6923431343E3
:1051800004686361B2F1406F18D04B680468A36192
:1051900014E04B6A93B1D1E90B3423434C6B2343A6
:1051A0004C6A23438C8A43EA84430C6A2343CC69C8
:1051B00023438C69234313430468636110BD10B516
:1051C00090B004464FF48070089085200290002033
:1051D00009900A904FF080700B90002007900120FA
:1051E0000C9000200D900E900F9041F2883202A991
:1051F0002046FDF78EFC10B1012010B010BD41F229
:10520000883201A92046FDF7C0FD08B10120F4E76E
:10521000204600F07CF808B10120EEE781200290E2
:105220009DF8040020F0F0000A21F02292FAA2F288
:10523000B2FA82F291400843C0B2019041F2883242
:1052400002A92046FDF765FC08B10120D5E741F22F
:10525000883201A92046FDF70FFE08B10120CCE7F6
:105260000020CAE710B58EB004464FF48070069057
:1052700066200090002007900890099005900B9000
:105280000C900D9041F2883269462046FDF741FCB2
:1052900010B101200EB010BD9920009041F288326B
:1052A00069462046FDF735FC08B10120F2E741F2DE
:1052B00088312046FFF764FE08B10120EAE70020AC
:1052C000E8E72DE9F04104460E4617469846069D4C
:1052D00012E0681C80B12DB1FCF748FFA0EB08007C
:1052E000A84209D9042084F83900E06B40F001009D
:1052F000E0630120BDE8F08120688068304008B19B
:10530000012000E00020B842E3D10020F2E710B510
:1053100094B004464FF480700C9006200690002054
:105320000D900E900F900B9011901290139041F2EF
:10533000883206A92046FDF7ECFB10B1012014B01D
:1053400010BD0220009001900020049001200390E5
:105350001020029080040590052006904FF0807088
:105360000F9041F288336A4606A92046FDF767FB95
:1053700008B10120E3E70020E1E7014600BF08098A
:1053800000EB8000420001F00F001044C0B27047F3
:105390000146002203E0521CA1F10A00C1B20A2911
:1053A000F9DA100741EA1060704770B5044600252D
:1053B0002068C06800F04000A0B9681E2168C8607D
:1053C000FCF7D4FE054607E0FCF7D0FE401BB0F525
:1053D0007A7F01D9032070BD2068C06800F04000CA
:1053E0000028F1D00020F6E710B5FDF701F90348D9
:1053F000007808B1FFF7A6FD10BD00009000002066
:1054000010B5B4B0002400BF2A48006840F08050B6
:10541000284908600846006800F08050019000BFED
:1054200000BF2548006840F4404023490860084612
:10543000006800F44040019000BF01202390000468
:10544000249002202990410523A8C16119210162FD
:1054500009014162022181620821C162FEF73AFB23
:1054600004460CB100BFFEE7FDF75AFA04460CB142
:1054700000BFFEE70F202F900220309000203190D7
:105480004FF4A05032904FF48050339006212FA853
:10549000FEF7ECF904460CB100BFFEE720200290B5
:1054A00006480E9002A8FDF755FD08B100BFFEE7C3
:1054B00034B010BD403802400070004000031900B5
:1054C0001448006840F470001249086012480068EF
:1054D00040F001001049086000200F4908310860C1
:1054E0000D4800680D4908400B4908600C48091D2B
:1054F0000860081F006820F48020091F0860002051
:1055000005490C3108604FF000600249803908609D
:105510007047000088ED00E000380240FFFFF6FE13
:1055200010300024002202682C4B98420ED0B0F1BB
:10553000804F0BD02A4B984208D02A4B984205D076
:10554000294B984202D0294B984201D1012300E017
:1055500000231BB122F070024B681A431F4B984284
:1055600020D0B0F1804F1DD01D4B98421AD01D4B5A
:10557000984217D01C4B984214D01C4B984211D023
:105580001B4B98420ED01B4B98420BD01A4B9842A3
:1055900008D01A4B984205D0194B984202D0194BAB
:1055A000984201D1012300E000231BB122F4407294
:1055B000CB681A4302608B68C3620B688362074B37
:1055C000984202D0094B984201D1012300E0002308
:1055D0000BB10B6903630123436170470000014075
:1055E0000004004000080040000C0040000401409E
:1055F00000400140004401400048014000180040C4
:10560000001C00400020004010B504462046FCF776
:1056100081FC10BD10B50248FFF7DCF810BD00009A
:105620006C0E00203EB504460D460020029001207D
:1056300002A903462A46CDE9001021460248FFF799
:10564000A3F99DF808003EBD6C0E002037B582B06E
:1056500004460D46012004A903462A46CDE9001060
:1056600021460248FFF7ADF905B030BD6C0E0020B1
:1056700070B504463CB100BF0748006805460121EB
:1056800008F0A3FD06E000BF0348006805460021BE
:1056900008F09BFD012070BDB801002001460129E2
:1056A00000D170470020FCE710B5012251022048CC
:1056B000FCF756FD4FF4167000F06CFB012211024E
:1056C0001B48FCF74DFD4FF4167000F063FB002201
:1056D0004FF400711648FCF743FD4FF4167000F0CC
:1056E00059FB00224FF480711148FCF739FD4FF44B
:1056F000167000F04FFB012211020D48FCF730FD3F
:105700004FF4167000F046FB012251020848FCF7E6
:1057100027FD4FF4167000F03DFB00224FF480711E
:105720000348FCF71DFD4FF4167000F033FB10BD6D
:105730000004024000F01F02012191404209920042
:1057400002F1E022C2F80011704700F01F020121AF
:1057500091404209920002F1E022C2F80011704724
:1057600000F01F0201219140024A430942F8231030
:105770007047000080E100E000F01F02012191402D
:10578000024A430942F823107047000080E100E01C
:1057900010B5002807DA0A07140E054A00F00F03B7
:1057A0001B1FD45403E00A07130E024A135410BD02
:1057B00018ED00E000E400E010B50023234C236066
:1057C00000BF00BF00BFBFF34F8F00BF00BF00BFCF
:1057D000231F1868C0F34E3100BFC0F3C90200BFD9
:1057E00043F6E07303EA41134FF0404404EA827445
:1057F0002343174C236000BF00BF131EA2F1010218
:10580000EED10B1EA1F10101E7D100BF00BF00BF27
:10581000BFF34F8F00BF00BF00BF0C4B703B1B6836
:1058200043F48033094C703C236000BF00BF00BFCD
:10583000BFF34F8F00BF00BF00BF00BF00BF00BF5E
:10584000BFF36F8F00BF00BF00BF10BD84ED00E04D
:1058500060EF00E030B58DB004460D4600200090AA
:10586000FBF702F9019000200290FBF70DF903907D
:105870000995FF200590002006908DF8300000214A
:105880008DF831108DF83210FBF7EEF80A90FBF727
:10589000FBF80B900220049040020790052008902E
:1058A000224669460248FCF7D3FE0DB030BD000029
:1058B000040F002010B588B01448007800F00100F3
:1058C00000BB12480DF030FDE0B10020104A114B32
:1058D000CDE905200493079001200221082204232A
:1058E000CDE90032CDE902101123BE220A490B484E
:1058F00008F028FA04460A4A0A49FAF766FD0348FE
:10590000AFF30080054808B010BD0000380000204B
:105910003C3E020804A00108B8420208F801002039
:105920000000000881DD000810B588B0124800783A
:1059300000F00100E8B910480DF0F6FCC8B10020F5
:105940000E4A0F4BCDE9052008220790CDE9000251
:105950000290CDE9030312230D220A490A4808F0F8
:10596000F1F90446094A0A49FAF72FFD0248AFF354
:105970000080054808B010BD3C0000203C420208F1
:1059800014E901081C4D020818020020000000085C
:1059900081DD000810B588B01248007800F00100E1
:1059A000E8B910480DF0C0FCC8B100200E4A0F4BFA
:1059B000CDE9052008220790CDE900020290CDE94B
:1059C00003031C230C220A490A4808F0BBF90446C9
:1059D000094A0A49FAF7F9FC0248AFF30080054882
:1059E00008B010BD400000204042020860EE0108EF
:1059F000D44D0208380200200000000881DD0008B4
:105A000010B588B01248007800F00100E8B91048DD
:105A10000DF08AFCC8B100200E4A0F4BCDE90520DD
:105A200008220790CDE900020290CDE90303282364
:105A30000E220A490A4808F085F90446094A0A492B
:105A4000FAF7C3FC0248AFF30080054808B010BD68
:105A50004400002044420208F4F701087C4E02088A
:105A6000580200200000000881DD000810B588B051
:105A70001348007800F00100F0B911480DF054FC13
:105A8000D0B100200F4A104BCDE905200422049329
:105A900007900123CDE901200093039043230622C0
:105AA0000A490B4808F04EF904460A4A0A49FAF72F
:105AB0008CFC0348AFF30080054808B010BD00001F
:105AC0004800002048420208F0120208404F020835
:105AD000780200200000000881DD000810B588B0C1
